:020000040800F2
:100000000000022099390008610E0008630E000804
:10001000650E0008670E0008690E00080000000069
:100020000000000000000000000000006B0E00084F
:100030006D0E0008000000006F0E0008710E000831
:10004000E9390008E9390008E9390008E939000808
:10005000E9390008E9390008E9390008E9390008F8
:10006000E9390008E9390008E9390008E9390008E8
:10007000E9390008E9390008E9390008E9390008D8
:10008000E9390008E9390008E9390008E9390008C8
:10009000E9390008E9390008E9390008E9390008B8
:1000A000E9390008E9390008E9390008E9390008A8
:1000B000E9390008E9390008E9390008E939000898
:1000C000E9390008E9390008E9390008E939000888
:1000D000E9390008E9390008E9390008E939000878
:1000E000E9390008E9390008E9390008E939000868
:1000F000E9390008E9390008E9390008E939000858
:10010000E9390008E9390008E9390008E939000847
:10011000E9390008E9390008E9390008E939000837
:10012000E9390008E9390008E9390008E939000827
:10013000E93900080000000000000000E93900086B
:10014000E9390008E9390008E9390008E939000807
:10015000E9390008E9390008E9390008E9390008F7
:10016000E9390008E9390008E9390008E9390008E7
:10017000E9390008E9390008E93900080000000001
:1001800000000000E9390008000000000000000045
:10019000E93900080000000000000000E93900080B
:1001A000000000000000000000000000E939000825
:1001B000E9390008E9390008E9390008E939000897
:0401C000E939000811
:1001C40053B94AB9002908BF00281CBF4FF0FF31BA
:1001D4004FF0FF3000F00CB8ADF1080C6DE904CE1F
:1001E40003F001FCDDF804E0DDE9022304B070470C
:1001F400704700BF10B5054C237833B9044B13B1D5
:100204000448AFF300800123237010BD3C04002098
:1002140000000000503E000808B5034B1BB1034921
:100224000348AFF3008008BD000000004004002034
:10023400503E0008F0B58DB000240794089409944A
:100244000A940B9401942F4B1A6B42F010021A6318
:100254001A6B02F010020192019A02941A6B42F096
:1002640080021A631A6B02F080020292029A0394CB
:100274001A6B42F004021A631A6B02F0040203922E
:10028400039A04941A6B42F001021A631A6B02F087
:1002940001020492049A05941A6B42F002021A6352
:1002A4001A6B02F002020592059A06941A6B42F048
:1002B40008021A631B6B03F008030693069B124F94
:1002C40022464AF27001384600F0D8FF0F4E22460B
:1002D4000121304600F0D2FF4AF270030793012552
:1002E400089509940A9407A9384600F0D3FE0795A7
:1002F400089509940A9407A9304600F0CBFE0DB086
:10030400F0BD00BF00380240001002400008024067
:1003140072B6FEE700B583B00023009301930E4844
:100324000E4B036000F078FE80B900220092019227
:100334006946094800F082FE50B910226946064811
:1003440000F07CFE30B903B05DF804FBFFF7E0FF7A
:10035400FFF7DEFFFFF7DCFFE40A00200074004033
:1003640008B50A480A4B03600A4B436000238360C4
:10037400C3604FF48042026143618361C3610362DD
:1003840000F0D4FF00B908BDFFF7C2FF900A0020B7
:1003940000540040A086010008B50A480A4B0360D7
:1003A4000A4B436000238360C3604FF480420261C0
:1003B40043618361C361036200F0B8FF00B908BD03
:1003C400FFF7A6FF3C0A002000580040A086010069
:1003D40008B50A480A4B03600A4B43600023836054
:1003E400C3604FF48042026143618361C36103626D
:1003F40000F09CFF00B908BDFFF78AFFE809002060
:10040400005C0040A086010008B50A480A4B03605E
:10041400002343608360C36003614FF4FA52426176
:100424008361C361036201F05FF800B908BDFFF79F
:100434006FFF00BFA00900200030014008B50A4842
:100444000A4B0360FF234360012282600023C360E0
:10045400026143618361C361036201F0F1F900B990
:1004640008BDFFF755FF00BF0C090020001000A0D5
:1004740008B50C480C4B0360002343608360C360E1
:1004840003614361836102F057FC30B94FF40061AA
:10049400044802F06DFC10B908BDFFF739FFFFF7FF
:1004A40037FF00BF88080020002C014008B50D4824
:1004B4000D4B03604FF48273436000238360C36079
:1004C400036143614FF400728261C361036243625A
:1004D40083620A23C36202F0E2FC00B908BDFFF79D
:1004E40017FF00BFE40700200034014008B50B48A3
:1004F4000B4B03604FF40072426000238360C360BF
:1005040002614BF6803242618361C361036200F091
:10051400EBFF00B908BDFFF7FBFE00BF5809002040
:100524000038004008B50A480A4B03604FF4E13331
:10053400436000238360C36003610C2242618361D2
:10054400C36102F093FD00B908BDFFF7E1FE00BFEF
:100554005C0700200010014008B50A480A4B0360FC
:10056400102383600123C36000230361022282619C
:10057400C3610362C362436300F086FE00B908BD31
:10058400FFF7C6FE580400200000044008B50A48DE
:100594004FF040230360002343608360C360036122
:1005A40043618361C36103624362836202F040FC7E
:1005B40000B908BDFFF7ACFE3C08002008B50A48A6
:1005C4000A4B03604FF4E133436000238360C3604C
:1005D40003610C2242618361C36102F076FD00B9BC
:1005E40008BDFFF795FE00BFA0070020004C0040A7
:1005F40000B595B03422002107A803F085FB002341
:10060400029303930493059306930093234A116C76
:1006140041F080511164126C02F080520092009AF1
:1006240001931F4B1A6842F440421A601B6803F49A
:1006340040430193019B012307934FF480330893B4
:1006440002230D934FF480020E920C220F92B422D7
:100654001092119303221292139307A801F070FED3
:10066400B0B901F083F8A8B90F23029302230393CE
:10067400002304934FF4A05305934FF4805306933F
:10068400052102A801F034F930B915B05DF804FB76
:10069400FFF73EFEFFF73CFEFFF73AFE003802404C
:1006A4000070004000B599B05C22002101A803F05D
:1006B4002BFB40F20333019332230393022304936D
:1006C4000C2202920693059310220792C0220892EC
:1006D4000A930623099301230B930C934FF00063B1
:1006E400169301A801F0DAF910B919B05DF804FB0A
:1006F400FFF70EFE08B500F0E5FBFFF779FFFFF703
:10070400D1FFFFF797FDFFF705FEFFF729FEFFF77F
:1007140043FEFFF75DFEFFF777FEFFF78FFEFFF75F
:10072400A7FEFFF7C3FEFFF7E1FEFFF7FBFEFFF7AF
:1007340013FFFFF72BFFFFF741FFFEE782B0002115
:1007440000910B4B5A6C42F480425A645A6C02F486
:1007540080420092009A01911A6C42F080521A640D
:100764001B6C03F080530193019B02B0704700BFE0
:100774000038024000B589B0002303930493059325
:10078400069307930268134B9A4202D009B05DF8AE
:1007940004FB0021019103F5E2331A6C42F000528C
:1007A4001A641A6C02F000520192019A02911A6BB7
:1007B40042F001021A631B6B03F001030293029BD4
:1007C400302303930323049303A9034800F062FC3A
:1007D400DCE700BF00740040000002402DE9F04156
:1007E4008EB0002309930A930B930C930D93036823
:1007F400534A934208D0534A934229D0524A9342CF
:1008040062D00EB0BDE8F081002501954F4C236BFA
:1008140043F002032363236B03F002030193019B60
:100824004FF4C073099312230A9303230C930423F4
:100834000D9309A9464800F02DFC0295236C43F45E
:1008440000132364236C03F400130293029BD8E780
:10085400002503953D4C236B43F002032363236B74
:1008640003F002030393039B0495236B43F00403F7
:100874002363236B03F004030493049B4FF480630A
:1008840009934FF01208CDF8288003270C9704260B
:100894000D9609A92E4800F0FDFB4FF480530993EF
:1008A400CDF828800B950C970D9609A9294800F0DE
:1008B400F1FB0595236C43F480032364236C03F458
:1008C40080030593059B9CE7002506951F4C236B2D
:1008D40043F004032363236B03F004030693069B92
:1008E4000795236B43F001032363236B03F0010398
:1008F4000793079B4FF4007309934FF01208CDF848
:10090400288003270C9704260D9609A9114800F0A6
:10091400C1FB4FF480730993CDF828800B950C9795
:100924000D9609A90C4800F0B5FB0895236C43F417
:1009340000032364236C03F400030893089B60E71B
:100944000054004000580040005C00400038024061
:1009540000040240000802400000024070B58CB060
:1009640000230793089309930A930B930368444A5B
:10097400934204D0434A934237D00CB070BD002454
:100984000094414B5A6C42F480525A645A6C02F4FB
:1009940080520092009A01941A6B42F001021A6389
:1009A4001A6B02F001020192019A02941A6B42F04E
:1009B40002021A631B6B03F002030293029B48F2C8
:1009C400800307930226089605250B9507A92F484F
:1009D40000F060FB08230793089609940A940B958A
:1009E40007A92B4800F056FBC7E700240394264BC5
:1009F4001A6C42F480421A641A6C02F48042039224
:100A0400039A04941A6B42F004021A631A6B02F0FC
:100A140004020492049A05941A6B42F001021A63C8
:100A24001A6B02F001020592059A06941A6B42F0C1
:100A340002021A631B6B03F002030693069B022552
:100A44000795089507230B9307A9124800F022FB8A
:100A540040230793089509940A9406230B9307A946
:100A64000A4800F017FB4FF4405307930895099484
:100A74000A9405230B9307A9054800F00BFB7CE7B8
:100A840000300140003800400038024000000240BD
:100A94000004024000080240F0B58BB00023059327
:100AA40006930793089309930268294B9A4201D04D
:100AB4000BB0F0BD00240194264B9A6B42F0020265
:100AC4009A639A6B02F002020192019A02941A6BE1
:100AD40042F010021A631A6B02F010020292029A98
:100AE40003941A6B42F008021A631A6B02F00802AC
:100AF4000392039A04941A6B42F002021A631B6B6A
:100B040003F002030493049B042305930226069630
:100B1400032508950927099705A90F4800F0BAFA93
:100B240043F608030593069607940895099705A9C3
:100B34000A4800F0AFFA40230593069607940895F7
:100B44000A23099305A9064800F0A4FAB0E700BFF8
:100B5400001000A00038024000100240000C0240C7
:100B640000040240F0B58BB000230593069307936D
:100B7400089309930268294B9A4201D00BB0F0BD47
:100B84000024019403F586335A6C42F400625A64DB
:100B94005A6C02F400620192019A02941A6B42F0B8
:100BA40002021A631A6B02F002020292029A03947E
:100BB4001A6B42F004021A631A6B02F004020392E5
:100BC400039A04941A6B42F008021A631B6B03F035
:100BD40008030493049B072305930227069703261F
:100BE40008960C25099505A90D4800F053FA4FF411
:100BF40010630593069707940896099505A9094873
:100C040000F048FA0423059306970794089609957B
:100C140005A9054800F03EFAB0E700BF002C0140EA
:100C24000004024000080240000C024010B59EB0CF
:100C34000446002119911A911B911C911D915C226B
:100C440002A803F061F82368B3F1402F01D01EB06D
:100C540010BD4FF48063029302A800F01FFF10BB85
:100C640000220092114B196C41F480311964196C03
:100C740001F48031009100990192196B41F008014F
:100C840019631B6B03F008030193019B80231993E1
:100C940002231A931B921C9208231D9319A904483A
:100CA40000F0F8F9D3E7FFF733FBD9E70038024047
:100CB400000C024000B589B000230393049305930C
:100CC400069307930268154B9A4202D009B05DF867
:100CD40004FB0021019103F582335A6C42F4005263
:100CE4005A645A6C02F400520192019A02911A6BEE
:100CF40042F010021A631B6B03F010030293029B71
:100D04004FF4A04303930223049303230693052380
:100D1400079303A9024800F0BDF9D7E70034014066
:100D24000010024000B58BB000230593069307938F
:100D3400089309930368284A934205D0274A9342AB
:100D440025D00BB05DF804FB00210191244B1A6CF3
:100D540042F400221A641A6C02F400220192019AED
:100D640002911A6B42F001021A631B6B03F0010338
:100D74000293029B012305931223069303230893F2
:100D84000823099305A9174800F084F9D9E700213D
:100D94000391134B5A6C42F010025A645A6C02F0DD
:100DA40010020392039A04911A6B42F001021A632F
:100DB4001B6B03F001030493049B4FF4C06305937E
:100DC40002230693032308930723099305A90548DF
:100DD40000F060F9B5E700BF004C0040001001408E
:100DE400003802400000024030B589B0002303936C
:100DF40004930593069307930268154B9A4201D016
:100E040009B030BD00250195124C236B43F0020359
:100E14002363236B03F002030193019B4FF44043CC
:100E2400039302230493032306930C2307930DEBEC
:100E34000301094800F02EF90295236B43F0005397
:100E44002363236B03F000530293029BD8E700BF94
:100E5400000004400038024000040240FEE7FEE7C0
:100E6400FEE7FEE7FEE770477047704708B500F0FD
:100E740043F808BD7047000010B504460E4B1A78BD
:100E84004FF47A73B3FBF2F30C4A1068B0FBF3F03F
:100E940000F0AEF868B90F2C01D901200AE0002255
:100EA40021464FF0FF3000F093F8054B1C60002002
:100EB40000E0012010BD00BF04000020000000205D
:100EC4000800002008B50B4B1A6842F400721A603F
:100ED4001A6842F480621A601A6842F480721A60D6
:100EE400032000F063F80F20FFF7C6FFFFF726FC8E
:100EF400002008BD003C0240034A1168034B1B78E4
:100F04000B441360704700BFF80A0020040000205F
:100F1400014B1868704700BFF80A002038B5044632
:100F2400FFF7F6FF0546B4F1FF3F02D0044B1B78F0
:100F34001C44FFF7EDFF401BA042FAD338BD00BFAD
:100F440004000020002808DB0901C9B200F1604058
:100F540000F5614080F80013704700F00F000901AC
:100F6400C9B2014B1954704714ED00E000B500F00C
:100F74000700C0F1070CBCF1040F28BF4FF0040CAC
:100F8400031D062B0FD9C31E4FF0FF3E0EFA0CF0C3
:100F940021EA000199400EFA03FE22EA0E0241EA18
:100FA40002005DF804FB0023EEE70000074AD36863
:100FB40023F4E0631B041B0C000200F4E060034311
:100FC40043F0BF6343F40033D360704700ED00E0A7
:100FD40010B50446054BD868C0F30220FFF7C6FFDE
:100FE40001462046FFF7AEFF10BD00BF00ED00E054
:100FF4000138B0F1807F0BD24FF0E0235861054AED
:10100400F02182F823100020986107221A617047AA
:101014000120704700ED00E070B110B5044603797B
:1010240033B102232371002020610123237110BDF9
:101034004371FFF79FFBF4E701207047034608461E
:101044005979012924D010B54FF0010E83F805E039
:10105400022119711C68216802F0100240F6FE7C1E
:101064000CFA02FC21EA0C0C01684068014391402F
:1010740041EA0C0121601C682168C02000FA02F2D8
:1010840021EA0202226083F804E00020587110BDB6
:101094000220704700230F2B00F2E68030B583B0A6
:1010A40068E085684FEA430E032404FA0EF425EA47
:1010B4000405CC6804FA0EF42C438460446824EAE2
:1010C40002044A68C2F300129A40224342605FE07D
:1010D400DC08083450F8242003F00705AD004FF075
:1010E4000F0E0EFA05FE22EA0E0E0A69AA4042EA23
:1010F4000E0240F824205FE0062200E0002202FAFB
:101104000EF22A430234594D45F82420584A1468F3
:101114006FEA0C0224EA0C05D1F804E01EF4803FC7
:1011240001D04CEA0405524C2560646802EA0405C7
:10113400D1F804E01EF4003F01D04CEA04054C4C05
:101144006560A46802EA0405D1F804E01EF4801F77
:1011540001D04CEA0405464CA560E46822404D6881
:1011640015F4001F01D04CEA0402414CE260013343
:101174000F2B77D801229A400C6804EA020C32EA59
:101184000404F4D14C6804F00304013C012C88D914
:101194004A6802F00302032A09D0C4685D000322EE
:1011A400AA4024EA02048A68AA402243C2604A6828
:1011B40002F00302022A8BD004684FEA430E032292
:1011C40002FA0EF224EA02044A6802F0030202FA66
:1011D4000EF2224302604A6812F4403FC7D0002254
:1011E4000192244A546C44F480445464526C02F4D2
:1011F40080420192019A9C08A51C1C4A52F8255071
:1012040003F0030E4FEA8E0E0F2202FA0EF225EAC5
:101214000205194A90423FF471AF02F58062904290
:1012240016D002F58062904214D002F5806290429A
:1012340012D002F58062904210D002F58062904292
:101244000ED002F5806290423FF456AF072256E773
:10125400012254E7022252E7032250E704224EE718
:1012640005224CE703B030BD704700BF0038014091
:10127400003C014000380240000002400AB1816194
:10128400704709048161704700284DD070B58AB059
:101294000446056890F8F932002B40D0032384F803
:1012A400F932EB6B13F4807F01D1002323612068B2
:1012B40002F097FAA4465CF8106BEE46BCE80F0007
:1012C400AEE80F00BCE80F00AEE80F009CE8030096
:1012D4008EE80300251D95E80E00304602F03CFA26
:1012E4000121206802F0B6FAA4465CF8106BEE46C1
:1012F400BCE80F00AEE80F00BCE80F00AEE80F003A
:101304009CE803008EE8030095E80E00304602F0E6
:10131400D3FA012384F8F93200200AB070BD80F8B2
:10132400F832FFF761FDB9E701207047002800F0AB
:10133400CC8070B5044690F83D30002B77D0242340
:1013440084F83D302268136823F001031360226897
:10135400136843F4004313602268136823F40043C2
:10136400136000F07BFB62685A4B9A4264D85A4B74
:1013740098428CBF00230123002B40F0A8805749DA
:10138400A1FB00318B0C25686A6822F03F0242EA17
:1013940091426A6021680A6A22F03F0266684D4DF4
:1013A400AE424FD8013313430B622168CA6922F459
:1013B4004F4222F0FF026568464B9D424CD8431EC3
:1013C4006D00B3FBF5F3013340F6FC70034278D0B3
:1013D400C3F30B031A43CA6121680B6823F0C003EB
:1013E400E269206A024313430B6021688B6823F48B
:1013F400034323F0FF032269E068024313438B6035
:101404002168CB6823F0FF036269A0690243134398
:10141400CB602268136843F001031360002020644A
:10142400202384F83D30206384F83E0070BD80F8AA
:101434003C30FFF7D3F982E7294B98428CBF002355
:10144400012399E74FF4967505FB03F3254DA5FB9E
:1014540003539B090133A6E7A668BEB9431E05EBF7
:10146400450CB3FBFCF30133C3F30B03B3FA83F36F
:101474005B0943BBC6B9431E05EB4505B3FBF5F356
:101484000133C3F30B0343F40043A3E7431E05EB0B
:10149400850C0CEB8C0CB3FBFCF30133C3F30B0393
:1014A400B3FA83F35B09E4E7431E05EB850505EB1B
:1014B4008505B3FBF5F30133C3F30B0343F4404356
:1014C40088E7042386E7012384E70120704701208D
:1014D400ACE700BFA08601007F841E0083DE1B43AF
:1014E400FF083D00D34D6210002800F0928038B50B
:1014F400044690F841300BB3022284F8412021685D
:10150400CB6923F47B6323F00F03CB6123681A6256
:101514006369934275D0E368BBB91025A368202B97
:1015240000D86D0023683C4A934210D002F58062D3
:1015340093420CD0022000F0EBFC0BE080F840302A
:10154400364B4363FFF70AFAD6E72025E6E7012086
:1015540000F0DEFC2369B3F5007F3AD0B0FBF5F070
:1015640000EB800043006269B3FBF2F305332C4ABD
:10157400A2FB0323C3F3C002C2EBD3035B08110233
:101584009A1EFD2A3FD822690A4321681A430A6237
:101594002168CB6923F47B6323F00F036268A0689E
:1015A4000243E0680243A0690243134343F4006327
:1015B400CB61A368302B01D0B02B04D12268D3694E
:1015C40043F48053D36100206064012384F84130E4
:1015D40038BDE36853B1AD00B0FBF5F000EB80001B
:1015E40043006269B3FBF2F30533C0E7ED00B0FBDF
:1015F400F5F000EB800043006269B3FBF2F30533BE
:10160400B5E70021BCE7636C43F010036364012079
:10161400DEE70120704700BF003800409F16000835
:10162400CDCCCCCC704708B5426A03681288DA6026
:10163400436A02334362438D9BB2013B9BB24385B1
:10164400438D9BB203B108BD0268536823F0A00325
:101654005360012380F84130FFF7E4FFF3E770475C
:1016640008B50368DA68C36A1A80C36A0233C362BE
:10167400438E9BB2013B9BB24386438E9BB203B124
:1016840008BD0268536823F060035360012380F8A7
:101694004130FFF7E4FFF3E7704710B584B0044628
:1016A40002689368039390F84130DBB2042B06D0B0
:1016B40094F84130DBB2032B2CD004B010BD039B53
:1016C40013F0010F03D0536813F0400F1FD1039B95
:1016D40013F0400FECD023685A6812F0200FE7D0C3
:1016E4005A6822F060025A60002301932368DA6882
:1016F40001929B680193019B012384F84130636C40
:1017040043F0020363642046FFF7C6FFD0E7FFF708
:10171400A7FFDCE7039B13F0020F04D023685B6888
:1017240013F0800F1DD1039B13F0080FC5D023685D
:101734005A6812F0200FC0D05A6822F0A0025A60F2
:101744000023029323689B680293029B012384F87D
:101754004130636C43F0040363642046FFF79CFF4D
:10176400ABE72046FFF75FFFDDE7000010B582B06E
:1017740000230193194B1A6C42F080521A641B6CBB
:1017840003F080530193019B154B01221A64FFF768
:10179400BFFB0446134B5B6813F4803F08D1FFF78B
:1017A400B7FB001BB0F57A7FF4D9032002B010BD5B
:1017B4000B4B01225A64FFF7ABFB0446094B5B68F1
:1017C40013F4003F07D1FFF7A3FB001BB0F57A7FAA
:1017D400F4D90320EAE70020E8E700BF003802401C
:1017E40000000E42007000402DE9F84305460F4604
:1017F40016469946DDF820802C68A4683C4214BF44
:101804004FF0010C4FF0000CB44514D0B8F1FF3F79
:10181400F2D0FFF77DFBA0EB0900404502D8B8F1F8
:10182400000FE9D1042385F841306B6C43F00103C8
:101834006B64012000E00020BDE8F88381647047F8
:1018440070B582B00446FFF763FB002C4CD006460B
:1018540094F84130002B3CD025682A6822F4F852D1
:10186400A168013942EA01222A60A36C009333463D
:10187400002220212046FFF7B7FF28BB21680B6810
:1018840023F07F4323F0D0036568E26842EA0562EF
:10189400E5692A43256A2A4313430B6021684A6891
:1018A400124B13402569626942EA0542A5692A433D
:1018B40013434B602268136843F001031360002351
:1018C4006364012384F84130002384F8403002B07B
:1018D40070BD84F840302046FFF7DEF841F28831CD
:1018E4002046FFF7ABFFB7E70120F0E7FEF8E0FF83
:1018F400002800F09B8070B50D4604464F4B1B68D2
:1019040003F00F038B4208D2CBB24C4A1370136816
:1019140003F00F038B4240F08B80236813F0020F17
:1019240017D013F0040F04D0454A936843F4E053EE
:101934009360236813F0080F04D0414A936843F47A
:10194400604393603E4A936823F0F003A1680B431D
:101954009360236813F0010F32D06368012B21D008
:101964009A1E012A25D9364A126812F0020F61D054
:1019740033498A6822F0030213438B60FFF7C8FAE5
:1019840006462F4B9B6803F00C036268B3EB820F8F
:1019940016D0FFF7BDFA801B41F288339842F0D984
:1019A400032042E0264A126812F4003FE0D10120ED
:1019B4003BE0234A126812F0007FD9D1012034E0C1
:1019C4001E4B1B6803F00F03AB4207D9EAB21B4B53
:1019D4001A701B6803F00F03AB422DD1236813F078
:1019E400040F06D0164A936823F4E053E1680B43CE
:1019F4009360236813F0080F07D0114A936823F407
:101A04006043216943EAC103936000F005FC0C4B79
:101A14009B68C3F303130B4AD35CD8400A4B18608A
:101A24000A4B1868FFF728FA002070BD01207047A0
:101A34000120FAE70120F8E70120F6E7003C024024
:101A440000380240703E000800000020080000201A
:101A5400014B1868704700BF0000002008B5FFF76D
:101A6400F7FF044B9B68C3F38223034AD35CD8403B
:101A740008BD00BF00380240683E000808B5FFF703
:101A8400E7FF044B9B68C3F34233034AD35CD8405B
:101A940008BD00BF00380240683E0008F0B583B0BE
:101AA4000446066816F001060DD0964AD2F88C302A
:101AB40023F0C063816B0B43C2F88C30836B002B23
:101AC40000F09B800026236813F0020F0BD08D4A90
:101AD400D2F88C3023F0C053E16B0B43C2F88C3046
:101AE400E36B03B90126256815F004050FD0854A78
:101AF400D2F88C3023F44013216B0B43C2F88C30A2
:101B0400236BB3F5801F7AD0002B7AD0002523688D
:101B140013F0080F0ED07B4AD2F88C3023F4400324
:101B2400616B0B43C2F88C30636BB3F5800F6AD0E2
:101B340003B90125236813F0200F66D1236813F03D
:101B4400100F04D094F858206F4BC3F8E021236899
:101B540013F0800F08D06B4AD2F8943023F440037A
:101B6400E16C0B43C2F89430236813F0400F08D0A3
:101B7400644AD2F8943023F08063A16C0B43C2F81A
:101B84009430236813F4807F0DD05E4AD2F89430E9
:101B940023F00063616D0B43C2F89430636DB3F1BD
:101BA400006F00F09B80236813F4007F08D0554A2F
:101BB400D2F8943023F08053616C0B43C2F8943014
:101BC400236813F4806F0CD04E4AD2F8943023F07B
:101BD4000053216D0B43C2F89430236DB3F1005FC1
:101BE4007ED0002E7CD12368B3F5006F78D0012D10
:101BF40000F02581002003B0F0BD012663E7012633
:101C040082E7012583E7012692E7002301933D4BF8
:101C14001A6C42F080521A641B6C03F080530193D7
:101C2400019B3A4A136843F480731360FFF770F919
:101C34000746364B1B6813F4807F06D1FFF768F91B
:101C4400C01B0228F5D90320D5E72E4B1B6F13F4D4
:101C5400407314D0226C02F440729A420FD0294B84
:101C64001A6F22F440722A490120C1F8400E002064
:101C7400C1F8400E1A671B6F13F0010F12D1236CC9
:101C840003F44072B2F5407F1DD01E4A936823F4DA
:101C9400F81393601B490B6F226CC2F30B021343BE
:101CA4000B674BE7FFF734F90746164B1B6F13F02E
:101CB400020FE4D1FFF72CF9C01B41F2883398429C
:101CC400F3D9032097E70F498A6822F4F81223F026
:101CD400704323F4407313438B60DBE7012562E711
:101CE4000B4B00229A66FFF713F90646054B1B6857
:101CF40013F0006F0ED0FFF70BF9801B0228F5D903
:101D0400032078E70038024000104742007000408A
:101D140000004742236813F0010F01D0A26B22B1E7
:101D240013F0020F15D0E36B9BB9774AD2F8840005
:101D3400D2F884106368A66843EA861300F440303E
:101D4400034301F070610B43616943EA0173C2F814
:101D54008430236813F0040F03D0226BB2F5801F84
:101D640006D013F0080F20D0636BB3F5800F1CD19D
:101D7400654AD2F88400D2F884106368A66843EAFE
:101D8400861300F440300343206943EA006301F002
:101D9400E0410B43C2F88430D2F88C3023F01F03A7
:101DA400A16A01390B43C2F88C30236813F4806FA5
:101DB40003D0236DB3F1005F28D0236813F4006FC0
:101DC40011D06368A26843EA8213E2685208013AB8
:101DD40043EA0243226943EA0263626943EA027303
:101DE400494AC2F88430494B01229A66FFF790F8B9
:101DF4000646454B1B6813F0006F7FF4F8AEFFF7FF
:101E040087F8801B0228F4D90320F4E63E48D0F872
:101E14008420C2F301420132D0F884606368A1686F
:101E240043EA8113E1684908013943EA014343EA7B
:101E3400426306F0E0421343C0F88430BDE7334BFD
:101E440000221A67FFF764F805462F4B1B6813F04E
:101E5400005F06D0FFF75CF8401B0228F5D9032089
:101E6400C9E6236813F0040F01D0226B22B113F0EA
:101E7400080F1AD0636BC3B9234AD2F88810A36938
:101E8400E06943EA801301F440310B43616A43EA99
:101E94000163C2F88830D2F88C3023F4F853E16A35
:101EA400013943EA0123C2F88C30236813F4807F9C
:101EB40003D0636DB3F1006F11D0144B01221A6784
:101EC400FFF726F80446104B1B6813F0005F18D187
:101ED400FFF71EF8001B0228F5D903208BE60A48F9
:101EE400D0F88810A369E26943EA8213226A52088F
:101EF400013A43EA024301F070621343C0F88830A8
:101F0400DBE7002077E600BF0038024000004742CC
:101F14000138072800F26681DFE810F0A40005010B
:101F2400640108006401640164010800AF4BD3F844
:101F34008C3003F47003B3F5401F00F055810DD9C4
:101F4400B3F5000F6ED0B3F5400F32D1A74B5B68E9
:101F540013F4800F40F05281A5487047B3F5801FF9
:101F640035D0B3F5001F5DD00BBBA04B5B6813F4F9
:101F7400800F23D19D4BD3F8883003F03F039C4955
:101F8400B1FBF3F1994BD3F88820C2F30362D3F881
:101F94008800C0F3881001FB00F0B0FBF2F0D3F826
:101FA4008C30C3F304230133B0FBF3F070470020FB
:101FB4007047B3F5800F0AD0002070478B4BD3F8DD
:101FC400883003F03F038B49B1FBF3F1DAE7874B29
:101FD4005B6813F4800F1CD1844BD3F8843003F076
:101FE4003F038349B1FBF3F1804BD3F88420C2F360
:101FF4000362D3F88400C0F3881001FB00F0B0FB47
:10200400F2F0D3F88C3003F01F030133B0FBF3F08C
:102014007047764BD3F8843003F03F037549B1FB26
:10202400F3F1E1E7714B5B6813F4800F12D16F4B4E
:102034005B6803F03F036E4AB2FBF3F26B494B68F3
:10204400C3F302734868C0F3881002FB00F0B0FBCE
:10205400F3F07047654B5B6803F03F03654AB2FBDE
:10206400F3F2EBE7614BD3F88C3003F0C063B3F1C8
:10207400806F38D006D893B1B3F1007F40F0C080B0
:102084005D487047B3F1C06F07D1584B5B6813F4D8
:10209400800F00F0B7805748704700207047534BBB
:1020A4005B6813F4800F15D0504BD3F8842002F0F2
:1020B4003F02504BB3FBF2F34C4AD2F88400C0F316
:1020C400881003FB00F0D2F88430C3F30273B0FB32
:1020D400F3F07047454BD3F8842002F03F02444BA1
:1020E400B3FBF2F3E8E7414B5B6813F4800F12D0C3
:1020F4003E4B5A6802F03F023E4BB3FBF2F33B4ABD
:102104005068C0F3881003FB00F05368C3F30273F4
:10211400B0FBF3F07047354B5A6802F03F02344B82
:10212400B3FBF2F3EBE7314BD3F88C3003F0C0533D
:10213400B3F1805F36D005D883B1B3F1006F63D1BA
:102144002D487047B3F1C05F06D1284B5B6813F488
:10215400800F5BD02748704700207047234B5B6893
:1021640013F4800F15D0214BD3F8842002F03F02E2
:10217400204BB3FBF2F31D4AD2F88400C0F388105D
:1021840003FB00F0D2F88430C3F30273B0FBF3F026
:102194007047164BD3F8842002F03F02144BB3FB74
:1021A400F2F3E8E7114B5B6813F4800F12D00F4B86
:1021B4005A6802F03F020F4BB3FBF2F30B4A50682C
:1021C400C0F3881003FB00F05368C3F30273B0FB41
:1021D400F3F07047054B5A6802F03F02044BB3FB1F
:1021E400F2F3EBE7002070470348704700380240E1
:1021F4000024F40000366E010080BB0004487047E0
:10220400002070470348704700207047014870471A
:1022140000366E010024F40008B5464B9B6803F0B9
:102224000C03082B07D00C2B45D0042B01D04248BB
:1022340008BD4248FCE73F4B5A6802F03F025B6826
:1022440013F4800F12D03B4B5968C1F388113B48FB
:102254000023A1FB0001FDF7B3FF364B5B68C3F31A
:10226400014301335B00B0FBF3F0E1E7314B586805
:10227400C0F388104FEA401CBCEB000C6EEB0E0E52
:102284004FEA8E1343EA9C634FEA8C11B1EB0C01C5
:1022940063EB0E03DB0043EA5173C90011EB000C3E
:1022A40043F10003990200234FEA8C2041EA9C5138
:1022B400FDF786FFD1E71F4B5A6802F03F025B68C7
:1022C40013F4800F10D01B4B5968C1F388111B48BD
:1022D4000023A1FB0001FDF773FF164B5B68C3F3FA
:1022E4000273B0FBF3F0A3E7124B5868C0F38810F5
:1022F4004FEA401CBCEB000C6EEB0E0E4FEA8E1343
:1023040043EA9C634FEA8C11B1EB0C0163EB0E03BF
:10231400DB0043EA5173C90011EB000C43F10003E5
:10232400990200234FEA8C2041EA9C51FDF748FFB3
:10233400D3E700BF003802400024F40000366E01E9
:10234400002800F0018270B582B00446036813F0DF
:10235400010F41D0994B9B6803F00C03042B32D03E
:10236400964B9B6803F00C03082B27D0934B9B6878
:1023740003F00C030C2B59D06368B3F5803F5BD09A
:10238400B3F5A02F5ED08D4B1A6822F480321A6008
:102394001A6822F480221A606368002B5CD0FEF76E
:1023A400B7FD0546854B1B6813F4003F14D1FEF7B7
:1023B400AFFD401B6428F5D90320CCE17F4B5B685B
:1023C40013F4800FD2D07D4B1B6813F4003F03D06D
:1023D4006368002B00F0BA81236813F0020F60D009
:1023E400764B9B6813F00C0F4AD0744B9B6803F038
:1023F4000C03082B3FD0714B9B6803F00C030C2B90
:1024040069D0E368002B75D06D4B01221A60FEF78A
:102414007FFD0546694B1B6813F0020F61D1FEF77F
:1024240077FD401B0228F5D9032094E1634B5B68D8
:1024340013F4800FA0D0C6E7604A136843F48033D6
:102444001360A9E75D4B1A6842F480221A601A6887
:1024540042F480321A609FE7FEF75AFD0546574B57
:102464001B6813F4003FB7D0FEF752FD401B6428ED
:10247400F5D903206FE1514B5B6813F4800FBAD197
:102484004E4B1B6813F0020F03D0E368012B40F09E
:102494005F814A4A136823F0F803216943EAC103C0
:1024A4001360236813F0080F49D06369002B33D0FD
:1024B400434B0122C3F8802EFEF72AFD05463F4B0D
:1024C4005B6F13F0020F3AD1FEF722FD401B022886
:1024D400F5D903203FE1394B5B6813F4800F90D1A9
:1024E400CEE7364A136823F0F803216943EAC103AF
:1024F4001360D6E7324B00221A60FEF709FD054649
:102504002E4B1B6813F0020FCBD0FEF701FD401BCE
:102514000228F5D903201EE1294B0022C3F8802E9E
:10252400FEF7F6FC0546254B5B6F13F0020F06D051
:10253400FEF7EEFC401B0228F5D903200BE12368CB
:1025440013F0040F76D01D4B1B6C13F0805F33D156
:1025540000230193194B1A6C42F080521A641B6CCD
:1025640003F080530193019B0125164B1B6813F460
:10257400807F29D0A368012B3AD0052B3ED00F4B86
:102584001A6F22F001021A671A6F22F004021A6706
:10259400A368002B3CD0FEF7BBFC0646074B1B6F21
:1025A40013F0020F45D1FEF7B3FC801B41F28833D0
:1025B4009842F3D90320CEE00025D6E70038024044
:1025C40000004742007000406B4A136843F4807374
:1025D4001360FEF79DFC0646674B1B6813F4807F6F
:1025E400C8D1FEF795FC801B0228F5D90320B2E080
:1025F400624A136F43F001031367C9E75F4B1A6F15
:1026040042F004021A671A6F42F001021A67BFE728
:10261400FEF77EFC0646594B1B6F13F0020F08D0E1
:10262400FEF776FC801B41F288339842F3D90320ED
:1026340091E0EDB9A369002B00F08C804F4A9268B9
:1026440002F00C02082A54D0022B17D04C4B002263
:102654001A66FEF75DFC0446484B1B6813F0007FC6
:1026640045D0FEF755FC001B0228F5D9032072E083
:10267400424A136C23F080531364DBE7404B00227F
:102684001A66FEF745FC05463C4B1B6813F0007FB9
:1026940006D0FEF73DFC401B0228F5D903205AE082
:1026A400E369226A1343626A43EA8213A26A520804
:1026B400013A43EA0243E26A43EA0263226B43EAD1
:1026C40002732E4A53602E4B01221A66FEF720FC39
:1026D40004462A4B1B6813F0007F06D1FEF718FC52
:1026E400001B0228F5D9032035E0002033E0002048
:1026F40031E0012B31D0214B5B6803F48001E269A6
:1027040091422CD103F03F02216A8A4229D1616AA5
:1027140047F6C0721A40B2EB811F24D103F4403152
:10272400A26A5208013AB1EB024F1ED103F0706263
:10273400E16AB2EB016F1AD103F0E043226BB3EB11
:10274400027F16D1002006E001207047012002E03C
:10275400012000E0002002B070BD0120FBE7012051
:10276400F9E70120F7E70120F5E70120F3E701206D
:10277400F1E70120EFE700BF00700040003802409D
:102784000000474270B582B00446002301930068FC
:1027940000F0EEFE054610B1284602B070BD206878
:1027A40000F0F9FE38B90123A364A36C012B0BD00C
:1027B4002E46284614E00023A364206800F0D8FEC7
:1027C4000028F2D00546E7E70021206800F0FAFE71
:1027D4000028EDD04FF08055DEE7019B01330193D3
:1027E400019A4FF6FE739A4213D896B900212068D5
:1027F40000F0E8FEE0B91249206800F0FBFE06464E
:10280400C0B90021206800F074FDC30FE5D01E4656
:10281400E3E7019A4FF6FE739A420ED810F0804314
:1028240002D001236364B7E7002262641D46B3E764
:102834000546B1E74FF08055AEE74FF08075ABE742
:10284400000010C1F0B589B004460F46FEF760FBE6
:1028540006460023009301930821206800F058FEE7
:10286400054610B1284609B0F0BD216D0904206861
:1028740000F0A8FE05460028F4D14FF0FF33029380
:102884000823039330230493022305930023069320
:102894000123079302A9206800F028FE206800F0B5
:1028A400DAFE054658B1DDE700F0FFFC4DF82500DF
:1028B4000135FEF72DFB831BB3F1FF3F3FD02068AA
:1028C400436B13F02A0F07D1436B13F4001FEBD1B2
:1028D400436B13F4005FECD1436B13F0080F25D165
:1028E400436B13F0020F24D1456B15F0200523D15F
:1028F40040F23A538363019A130203F47F0343EAD9
:102904000263110A01F47F410B4343EA12633B6003
:10291400009A130203F47F0343EA0263110A01F4E9
:102924007F410B4343EA12637B609BE70825856381
:1029340098E70225856395E72025856392E74FF0A4
:1029440000458FE710B582B0044600210091019143
:10295400006800F0CEFC10F0007F13D169462046D9
:10296400FFF770FF80B9019B13F4802F0ED0216D07
:102974000904206800F026FE30B90221206800F026
:1029840052FE01E04FF4006002B010BD4FF08060D1
:10299400FAE710B582B00446002100910191006865
:1029A40000F0A7FC10F0007F13D169462046FFF722
:1029B40049FF80B9019B13F4803F0ED0216D0904B7
:1029C400206800F0FFFD30B90021206800F02BFEE4
:1029D40001E04FF4006002B010BD4FF08060FAE7F0
:1029E4000346426E920F0A70426EC2F383624A70CB
:1029F40090F8672002F003028A7090F86620CA708B
:102A040090F865200A7190F864204A71826E120D64
:102A1400CA80B0F86A2002F00F020A72826EC2F312
:102A2400C0324A72826EC2F380328A72826EC2F3FC
:102A34004032CA72826EC2F300320A7300224A73B1
:102A4400426C002A40F08680806E40F6FC7202EAF6
:102A54008002D86E42EA90720A61DA6EC2F3C262F0
:102A64000A7593F86F2002F007024A75DA6EC2F312
:102A740042528A75DA6EC2F38242CA75DA6EC2F3C2
:102A8400C2320A760A6901325A65087E00F00700EC
:102A9400023082405A6591F808C00CF00F0C0120F6
:102AA40000FA0CF09865400A00FB02F2DA654FF474
:102AB40000721A66DA6EC2F380324A76DA6EC2F3B4
:102AC400C6128A76DA6E02F07F02CA761A6FD20FC5
:102AD4000A771A6FC2F341724A771A6FC2F382629D
:102AE4008A771A6FC2F38352CA771A6FC2F34052BD
:102AF40081F82020002081F82100B3F8722002F030
:102B0400010281F822201A6FC2F3C03281F8232017
:102B14001A6FC2F3803281F824201A6FC2F3403254
:102B240081F825201A6FC2F3003281F826201A6F2B
:102B3400C2F3812281F827201A6FC2F3012281F89F
:102B440028201B6FC3F3460381F82930012381F841
:102B54002A307047012A11D1826E120402F47C12C9
:102B6400B0F86E0002430A610A69013292025A65A2
:102B7400DA654FF400729A651A669BE702680549A4
:102B84009163826B42F080528263012083F83400A7
:102B9400704700BFFF05400070B590B004460123A4
:102BA400ADF81230006800F08BFB00286CD0636C29
:102BB400032B45D1636C032B5DD1636C032B1DD0B8
:102BC400BDF8121021650904206800F071FD054666
:102BD40000285BD10021206800F08BFB6066042193
:102BE400206800F086FBA0660821206800F081FBC5
:102BF400E0660C21206800F07CFB2067042120683B
:102C040000F077FB000DE06405A92046FFF7E8FE1D
:102C140000283ED1226D12040023206800F090FCAD
:102C2400054698BB234653F8106B93E807008DE8DC
:102C34000700043494E80E00304600F01DFB25E044
:102C4400206800F020FD054600BB0021206800F04C
:102C540050FB60670421206800F04BFBA06708214B
:102C6400206800F046FBE0670C21206800F041FB7F
:102C7400C4F880009EE70DF11201206800F02DFDDC
:102C84000546002899D001E04FF08065284610B031
:102C940070BD4FF08055F9E770B58AB00446002343
:102CA40004930593069307930893762309930AAB39
:102CB40013E907008DE8070004AB0ECB206800F091
:102CC400DBFA18B1012528460AB070BD0546184E36
:102CD4000023C6F8A030206800F0EAFA0123C6F801
:102CE400A0302046FFF74EFD30B1012584F8345062
:102CF400A36B0343A363E6E72046FFF74DFF30B120
:102D0400012584F83450A36B0343A363DBE74FF43A
:102D14000071206800F0FCFB0028D4D0236805492A
:102D24009963A36B0343A363012584F83450CAE772
:102D340000802542FF054000A8B110B5044690F874
:102D4400343063B1032384F834302046FFF7A4FF02
:102D540058B9A0632063012384F8343010BD03778D
:102D6400FDF700FFEEE7012070470120F6E70000C1
:102D740030B58BB004460D46032380F83430436CE1
:102D8400032B1CD0B1F5805F08D0B1F5006F0AD0D9
:102D940079B1836B43F00063836314E0836B43F086
:102DA400805383630FE0FFF7CDFDA36B0343A3635D
:102DB40009E0FFF7EEFDA36B0343A36303E0836B1A
:102DC40043F080538363A36BC3B12368174A9A63A8
:102DD400012584F834504FF40071206800F098FB0A
:102DE40030B1236811499963A36B0343A36301259D
:102DF400012384F8343028460BB030BD6368049353
:102E0400A3680593E3680693079563690893A36928
:102E140009930AAB13E907008DE8070004AB0ECB56
:102E2400206800F029FA0025D5E700BFFF0540001F
:102E3400002832D010B5044690F8453043B302233D
:102E440084F845302268136823F003031360216873
:102E54000A6822F4EF2222F47E72A36960680343B5
:102E6400A0680343E06803432069034360690343A4
:102E7400E0690343206A0343606A0343A06A03438F
:102E840013430B600020A064012384F8453010BD77
:102E940080F84430FDF7CAFED1E7012070470028CE
:102EA4005AD010B50446436A33B94368B3F5827FF8
:102EB40005D00023C36102E00023036143610023C2
:102EC400A36294F85130002B40D0022384F851308F
:102ED4002268136823F040031360636803F4827369
:102EE400A26802F404421343E26802F4006213434A
:102EF400226902F002021343626902F001021343E1
:102F0400A26902F400721343E26902F03802134327
:102F1400226A02F080021343A26A02F4005221687A
:102F240013430B60638B03F00403626A02F0100224
:102F3400216813434B602268D36923F40063D3618F
:102F440000206065012384F8513010BD84F85030AE
:102F54002046FDF7AFFEB8E70120704710B50446E0
:102F64000268136923F44053C1680B4313618368F7
:102F740002691A4343691A43C3691A430168CB6857
:102F840023F4164323F00C031343CB600268536904
:102F940023F4407381690B4353610368314A9342BC
:102FA40006D002F58062934202D0FEF757FD01E09D
:102FB400FEF764FDE369B3F5004F29D0002103183F
:102FC40049411B1841F10001C90041EA5371DB007A
:102FD400181863684FEA83024FEA937341F10001C2
:102FE400FDF7EEF8204AA2FB00314909642303FBF4
:102FF40011031B013233A2FB03235B0903F0F0022C
:1030040002EB011203F00F03216813448B6010BD1F
:103014000023021843EB0301121841F10001C90017
:1030240041EA5271D200101841F10001626892180D
:103034005B41FDF7C5F80C4AA2FB00314909642342
:1030440003FB1103DB003233A2FB03235B095A00A9
:1030540002F4F87202EB011203F00703216813442F
:103064008B60D4E7001001401F85EB5158B310B5B5
:10307400044690F83D300BB3242384F83D30226895
:10308400D36823F40053D3602046FFF767FF226818
:10309400136923F4904313612268536923F02A03CC
:1030A40053612268D36843F40053D3600020206442
:1030B400202384F83D3084F83E3010BD80F83C3045
:1030C400FDF730FED8E701207047002830D010B556
:1030D400044690F83D3033B3242384F83D3022680D
:1030E400D36823F40053D3602046FFF737FF2268E8
:1030F400136923F4904313612268536923F0220374
:1031040053612268536943F0080353612268D3680A
:1031140043F40053D36000202064202384F83D301E
:1031240084F83E3010BD80F83C30FDF7FBFDD3E75A
:10313400012070470B4B1B680B4AA2FB03235B0A5D
:1031440041F2883202FB03F31A46013B3AB1426B67
:1031540012F0800FF8D0C5238363002070474FF02E
:103164000040704700000020D34D62100146144B0C
:103174001B68144AA2FB03235B0A41F2883202FB58
:1031840003F31A46013BBAB14A6B12F0450FF8D06B
:1031940012F4006FF5D14B6B13F0040F06D1486B9A
:1031A40010F0010005D1C5238B63704704208863A8
:1031B40070470120886370474FF00040704700BF9C
:1031C40000000020D34D62100146104B1B68104ACA
:1031D400A2FB03235B0A41F2883202FB03F31A4683
:1031E400013B82B14A6B12F0450FF8D012F4006F24
:1031F400F5D1486B10F0040002D1C5238B637047EE
:103204000420886370474FF000407047000000209E
:10321400D34D62100146164B1B68164AA2FB0323CA
:103224005B0A41F2883202FB03F31A46013BE2B126
:103234004A6B12F0450FF8D012F4006FF5D14B6BC6
:1032440013F0040F0BD14B6B13F001030AD1486B3D
:1032540010F040000BD040228A63184670470420C7
:10326400886370470120886370474FF000407047BF
:1032740000000020D34D621084B00DF1040C8CE8E2
:103284000E000B461343039A1343049A1343059AFF
:103294001343069A1343426822F4FD4222F07F024C
:1032A40013434360002004B07047D0F88000704797
:1032B40008B5032303600220FDF730FE002008BD9B
:1032C400006800F0030070470B6883604B688A68ED
:1032D4001343CA6813430A691343C26822F47F6222
:1032E40022F00F021343C360002070470069C0B28C
:1032F400704714304058704738B504460D46504B5B
:103304001B685049A1FB03135B0A03FB02F213463B
:10331400013A002B5DD0636B13F0450FF7D013F423
:10332400006FF4D1636B13F0040F06D1636B13F0D9
:10333400010F05D00120A0634DE00420A0634AE002
:10334400C523A3632046FFF7D1FFA84201D0012083
:1033540041E000212046FFF7CCFF03463A481840DD
:10336400C8B3002B38DB13F0804F38D113F0005F63
:1033740037D113F0805F36D113F0006F36D113F0DC
:10338400806F36D113F0807F36D113F4000F36D11D
:1033940013F4800F36D113F4001F36D113F4801FB9
:1033A40036D113F4802F36D113F4003F36D113F401
:1033B400803F36D113F4004F36D113F4804F36D109
:1033C40013F4005F36D113F0080F36D04FF4000029
:1033D40001E04FF0004038BD4FF00070FBE74020A3
:1033E400F9E78020F7E74FF48070F4E74FF40070BA
:1033F400F1E74FF48060EEE74FF40060EBE74FF441
:103404008050E8E74FF40050E5E74FF48040E2E7EE
:103414004FF40040DFE74FF40030DCE74FF4802046
:10342400D9E74FF40020D6E74FF48010D3E74FF4E8
:103434000010D0E74FF48000CDE74FF48030CAE7A6
:1034440000000020D34D621008E0FFFDF8B50546EA
:103454000E461746234B1B68234AA2FB03235B0A31
:1034640041F2883202FB03F31A46013B8AB36C6BC8
:1034740014F0450FF8D014F4006FF5D16B6B13F012
:10348400040F06D16B6B13F0010F05D00120A86364
:1034940021E00420A8631EE02846FFF727FFB0427E
:1034A40001D0012017E0C523AB6300212846FFF7B4
:1034B40020FF034610F4604008D013F4804F0BD172
:1034C40013F4004F0BD04FF4805004E01B0C3B80EE
:1034D40001E04FF00040F8BD4FF40050FBE74FF41B
:1034E4008030F8E700000020D34D62100B6843627F
:1034F4004B6883628B68CA6813430A6913434A6939
:103504001343C26A22F0F7021343C36200207047D8
:1035140030B587B0044601911025029540230393EA
:10352400002304934FF48063059301A9FFF7CCFEB5
:1035340041F2883229462046FFF7DEFE07B030BD4F
:1035440030B587B0044601920725029540230393C2
:10355400002304934FF48063059301A9FFF7B4FE9D
:1035640041F2883229462046FFF7C6FE07B030BD37
:1035740010B586B004460023019302930393049389
:103584004FF48063059301A9FFF79EFE2046FFF7E1
:10359400D1FD06B010BD10B586B004464FF4D57306
:1035A40001930823029340230393002304934FF4CD
:1035B4008063059301A9FFF787FE2046FFF72AFEE3
:1035C40006B010BD30B587B0044601913725029589
:1035D40040230393002304934FF48063059301A9CC
:1035E400FFF772FE41F2883229462046FFF784FE37
:1035F40007B030BD10B586B0044641F0004141F437
:1036040080110191292302934023039300230493FF
:103614004FF48063059301A9FFF756FE2046FFF798
:10362400D3FD06B010BD30B587B004460191062520
:10363400029540230393002304934FF4806305937E
:1036440001A9FFF741FE41F2883229462046FFF7DF
:1036540053FE07B030BD30B587B004460023019354
:10366400332502954022039204934FF4806305931B
:1036740001A9FFF729FE41F2883229462046FFF7C7
:103684003BFE07B030BD10B586B00446002301935D
:1036940002220292C022039204934FF480630593A2
:1036A40001A9FFF711FE2046FFF760FD06B010BD2B
:1036B40010B586B00446019109230293C0230393F5
:1036C400002304934FF48063059301A9FFF7FCFDE5
:1036D4002046FFF74BFD06B010BD70B586B004461A
:1036E4000D4600230193032602964022039204937D
:1036F4004FF48063059301A9FFF7E6FD2A4631469E
:103704002046FFF7A3FE06B070BD000082B0002380
:103714000193019B013301930E4A934214D8036928
:10372400002BF6DA00230193036943F001030361DC
:10373400019B01330193074A934208D8036913F0AC
:10374400010FF5D1002000E0032002B070470320F0
:10375400FBE700BF400D030084B010B5044603A886
:1037640080E80E00089B012B1FD1A36B23F4803348
:10377400A363E36823F4840323F04003E360E36872
:1037840023F44013E3600F9B012B09D02046FFF77D
:10379400BDFF069B012B1BD0BDE8104004B0704751
:1037A400E36843F48013E360F0E7E36843F0400325
:1037B400E3602046FFF7AAFF0C9B23B9A36B43F4F5
:1037C4008033A363E5E7A36B23F48033A363E0E7CB
:1037D400A36843F00603A360A36843F02003A36037
:1037E400DAE7836823F00103836000207047000058
:1037F40082B000230193890141F020010161019B02
:1038040001330193054A934205D8036913F0200F4D
:10381400F5D1002000E0032002B07047400D030002
:1038240082B00023019310230361019B01330193B0
:10383400054A934205D8036913F0100FF5D100200F
:1038440000E0032002B07047400D0300406900F01F
:103854000100704738B50546C36823F0C043C36010
:10386400012913D019BBC36843F08043C36000240B
:103874000120FDF753FB01342846FFF7E7FF08B1A9
:10388400312CF5D9322C14D0002038BDC36843F054
:103894000053C36000240120FDF740FB0134284697
:1038A400FFF7D4FF0128EDD0312CF4D9EAE7012049
:1038B400EBE70120E9E7000084B010B5044603A853
:1038C40080E80E000023C4F8003EA36B23F4001329
:1038D400A363E36B13F4807F10D0059B012B06D008
:1038E400D4F8003423F00403C4F800340CE0D4F812
:1038F400003443F00403C4F8003405E0D4F8003481
:1039040023F00403C4F8003410212046FFF770FFAD
:103914002046FFF785FF002209E004EB42134FF035
:10392400FF31C3F808150021C3F80C150132049BBC
:103934009342F2D80023A3614FF0FF336361E36B3A
:1039440013F4807F17D04FF40073636203F1807324
:10395400A3620D4BC4F80031069B1BB9A36943F065
:103964001003A361A269094B1343A3610020BDE8BE
:10397400104004B070478023636203F5C003A36260
:10398400034BC4F80031E7E70003E000080020A37C
:10399400E0004000DFF834D00D480E490E4A002301
:1039A40002E0D458C4500433C4188C42F9D30B4AEF
:1039B4000B4C002301E013600432A242FBD3FDF759
:1039C40059FA00F07DF9FCF795FE704700000220DB
:1039D400000000203C040020983E00083C04002025
:1039E400000B0020FEE72DE9F04786468C4608468A
:1039F400089E154674461946002B40F0C280854245
:103A0400B2FA82F245D94AB1C2F1200300FA02FCAB
:103A14002EFA03F3954043EA0C0C94404FEA154EFA
:103A2400A8B2BCFBFEF8230C0EFB18CC08FB00F973
:103A340043EA0C43994528D9EB1808F1FF3704D21F
:103A4400994502D9A8F102072B44A3EB0903A4B2B8
:103A5400B3FBFEFC0EFB1C330CFB00F044EA0344F6
:103A6400A04214D92C190CF1FF3304D2A04202D97C
:103A7400ACF102032C44241A43EA07401EB1D4409B
:103A8400002334607360BDE8F0874746DDE7634692
:103A9400F1E792BB431B01214FEA154EAFB2B3FBD2
:103AA400FEFC200C0EFB1C330CFB07F840EA03431E
:103AB400984562D9EB180CF1FF3004D2984502D92D
:103AC400ACF102002B44A3EB0803A4B2B3FBFEFC4D
:103AD4000EFB1C330CFB07F744EA0344A7424ED900
:103AE4002C190CF1FF3304D2A74202D9ACF1020322
:103AF4002C44E41B43EA0040C0E7C2F1200320FA4F
:103B040003F1954090402EFA03F303434FEA154E18
:103B1400AFB2B1FBFEFC0EFB1C10190C0CFB07F83A
:103B240041EA0041884504FA02F422D969180CF1EB
:103B3400FF3004D2884502D9ACF102002944A1EB3C
:103B440008019BB2B1FBFEFC0EFB1C110CFB07F73A
:103B540043EA01439F420ED9EB180CF1FF3104D222
:103B64009F4202D9ACF102012B44DB1B41EA004124
:103B740092E76046E3E76146F7E76046A3E76346FA
:103B8400B7E7834206D916B9002108467BE7C6E9A0
:103B940000E0F9E7B3FA83F78FB9834201D37245A2
:103BA40008D8BEEB020460EB030301209C461EB957
:103BB400002168E73846FAE7C6E9004CF8E7C7F1A0
:103BC400200CBB4022FA0CF41C432EFA0CF120FA10
:103BD4000CF3B84001434FEA14490EFA07F5B3FB5E
:103BE400F9F81FFA84FE09FB18300B0C08FB0EFAD7
:103BF40043EA00439A4502FA07F240D9E31808F170
:103C0400FF3004D29A4502D9A8F102002344A3EB61
:103C14000A0389B2B3FBF9F809FB183308FB0EFE5B
:103C240041EA03418E452CD9611808F1FF3304D2CF
:103C34008E4502D9A8F10203214443EA0040A0FBC7
:103C44000298A1EB0E014145CE46434602D306D16C
:103C54004D4504D2B9EB020E68EB04030138002E83
:103C6400A6D0B5EB0E0261EB030101FA0CFC22FABB
:103C740007F34CEA0303F940C6E9003198E74046EC
:103C8400C5E74346D9E70000002301461A46184613
:103C940000F08CB838B5084D084BED1AAC1007D0BD
:103CA400043D1D44013C55F804399847002CF9D1D2
:103CB400BDE8384000F0D0B8983E0008943E0008B3
:103CC40070B50D4E0D4D761BB61006D0002455F878
:103CD400043B01349847A642F9D1094E094D761B9D
:103CE40000F0B4F8B61006D0002455F8043B0134B3
:103CF4009847A642F9D170BD8C3E00088C3E00085E
:103D0400943E00088C3E0008830730B548D0541E0A
:103D1400002A3FD0CAB2034601E0013C3AD303F87B
:103D2400012B9D07F9D1032C2DD9CDB245EA0525E8
:103D34000F2C45EA054536D9A4F1100222F00F0CE8
:103D440003F1200EE6444FEA121C03F1100242E98B
:103D5400045542E9025510327245F8D10CF10102C2
:103D640014F00C0F03EB021204F00F0C13D0ACF19F
:103D7400040323F003030433134442F8045B934223
:103D8400FBD10CF003042CB1C9B21C4403F8011B91
:103D94009C42FBD130BD64461346002CF4D1F9E7B4
:103DA40003461446BFE71A46A446E0E72DE9F84364
:103DB4001D4D0646286898460F46914600F042F885
:103DC4001A4B1B68D3F848411CB3286865681F2D3B
:103DD40024DC4EB96B1C0235636044F8257000F096
:103DE40033F80020BDE8F88304EB85010123C1F812
:103DF4008890D4F88821AB401A43022EC4F8882155
:103E0400C1F80881E6D1D4F88C211A43C4F88C2176
:103E1400E0E703F5A674C3F84841D6E700F014F8C8
:103E24004FF0FF30DEE700BF38040020803E00087A
:103E3400024B13B10248FFF727BF70470000000090
:103E4400993C0008704700BF704700BFF8B500BF39
:103E5400F8BC08BC9E467047F8B500BFF8BC08BC67
:043E64009E467047BF
:103E68000000000001020304000000000000000040
:0C3E7800010203040607080910000020E6
:083E840066FBFF7F0100000056
:083E8C00353E00081D0200088C
:043E9400F901000828
:103E98000024F400010000001000000000000000F1
:103EA80000000000FC02002064030020CC03002076
:103EB80000000000000000000000000000000000FA
:103EC80000000000000000000000000000000000EA
:103ED80000000000000000000000000000000000DA
:103EE80000000000000000000000000000000000CA
:103EF80000000000000000000000000000000000BA
:103F080000000000000000000000000000000000A9
:103F18000000000000000000000000000000000099
:103F28000000000000000000000000000000000089
:103F38000000000000000000000000000000000079
:103F48000000000000000000010000000000000068
:103F58000E33CDAB34126DE6ECDE05000B0000002D
:103F68000000000000000000000000000000000049
:103F78000000000000000000000000000000000039
:103F88000000000000000000000000000000000029
:103F98000000000000000000000000000000000019
:0C42C8000000000000000000FC0A0020C4
:04000005080039991D
:00000001FF
