:020000040800F2
:1000000000000220654C00083D0E00083F0E00086D
:10001000410E0008430E0008450E000800000000D5
:10002000000000000000000000000000470E000873
:10003000490E0008000000004B0E00084D0E00089D
:10004000B54C0008B54C0008B54C0008B54C00088C
:10005000B54C0008B54C0008B54C0008B54C00087C
:10006000B54C0008B54C0008B54C0008B54C00086C
:10007000B54C0008550E0008B54C0008650E000888
:10008000B54C0008B54C0008B54C0008B54C00084C
:10009000B54C0008B54C0008B54C0008B54C00083C
:1000A000B54C0008B54C0008B54C0008B54C00082C
:1000B000B54C0008B54C0008B54C0008B54C00081C
:1000C000B54C0008B54C0008B54C0008750E00088A
:1000D000850E0008B54C0008B54C0008B54C00086A
:1000E000B54C0008B54C0008B54C0008B54C0008EC
:1000F000B54C0008B54C0008B54C0008B54C0008DC
:10010000B54C0008950E0008B54C0008B54C000829
:10011000A50E0008B54C0008B54C0008B54C000809
:10012000B54C0008B50E0008B54C0008C50E000817
:10013000B54C00080000000000000000B54C0008AD
:10014000B54C0008B54C0008B54C0008B54C00088B
:10015000D50E0008B54C0008E50E0008B54C0008A7
:10016000B54C0008B54C0008B54C0008B54C00086B
:10017000B54C0008B54C0008B54C00080000000064
:1001800000000000B54C0008000000000000000066
:10019000F50E00080000000000000000B54C00084B
:1001A000000000000000000000000000B54C000846
:1001B000050F0008B54C0008B54C0008B54C000808
:0401C000B54C000832
:1001C40053B94AB9002908BF00281CBF4FF0FF31BA
:1001D4004FF0FF3000F00CB8ADF1080C6DE904CE1F
:1001E40004F067FDDDF804E0DDE9022304B07047A4
:1001F400704700BF10B5054C237833B9044B13B1D5
:100204000448AFF300800123237010BD3C04002098
:10021400000000001C51000808B5034B1BB1034942
:100224000348AFF3008008BD000000004004002034
:100234001C51000800B583B00023009301931048BB
:10024400104B036001F058F880B90022009201922B
:1002540069460B4801F062F858B91022694608480B
:1002640001F05CF840B903B05DF804FB00F040FB1A
:10027400EBE700F03DFBF0E700F03AFBF3E700BFEB
:10028400580400200074004000B589B00023039393
:1002940004930593069307930268134B9A4202D082
:1002A40009B05DF804FB0021019103F5E2331A6CF7
:1002B40042F000521A641A6C02F000520192019A40
:1002C40002911A6B42F001021A631B6B03F00103E3
:1002D4000293029B302303930323049303A903484B
:1002E40001F062FADCE700BF007400400000024045
:1002F40010B582B000240094224B1A6B42F4001211
:100304001A631A6B02F400120092009A01941A6B99
:1003140042F480021A631B6B03F480030193019B74
:10032400224621460D2000F0B5FF0D2000F0C2FF4B
:10033400224621460F2000F0ADFF0F2000F0BAFF47
:1003440022462146392000F0A5FF392000F0B2FFF3
:10035400224621463B2000F09DFF3B2000F0AAFFEF
:1003640022462146442000F095FF442000F0A2FFDD
:1003740022462146462000F08DFF462000F09AFFD9
:1003840002B010BD003802402DE9F0418CB00024C9
:100394000794089409940A940B9401944D4B1A6B96
:1003A40042F010021A631A6B02F010020192019AD1
:1003B40002941A6B42F004021A631A6B02F00402EC
:1003C4000292029A03941A6B42F080021A631A6B27
:1003D40002F080020392039A04941A6B42F0010221
:1003E4001A631A6B02F001020492049A05941A6BC0
:1003F40042F002021A631A6B02F002020592059A95
:1004040006941A6B42F008021A631B6B03F008038C
:100414000693069BDFF8C08022464AF270014046EC
:1004240001F0B6FA2D4E22460121304601F0B0FA11
:1004340040F68B73079303250895099407A9404652
:1004440001F0B2F94AF2700307930127089709945F
:100454000A9407A9404601F0A7F94EF2FC4307931A
:100464000895099407A9304601F09EF90797089763
:1004740009940A9407A9304601F096F941F60E133F
:1004840007930895099407A9154801F08DF94CF2D2
:10049400F37307930895099407A9124801F084F9A6
:1004A4004FF4007307930223089309940A940523D5
:1004B4000B9307A9304601F077F94FF40C730793B7
:1004C4000895099407A9084801F06EF90CB0BDE835
:1004D400F08100BF003802400010024000080240D2
:1004E40000000240000C02400004024008B50B4822
:1004F4000B4B03600B4B436000238360C3604FF4DA
:100504008042026143618361C361036201F098FA2E
:1005140000B908BD00F0ECF9FBE700BFC0040020FF
:1005240000540040A086010008B50B480B4B036043
:100534000B4B436000238360C3604FF4804202612D
:1005440043618361C361036201F07AFA00B908BDB3
:1005540000F0CEF9FBE700BF6C0400200058004017
:10056400A08601002DE9F0418AB00023059306938B
:100574000793089309930368344A934205D0344A95
:10058400934226D00AB0BDE8F08100250095314C95
:10059400236B43F002032363236B03F002030093F2
:1005A400009B4FF4C073059312230693032308930F
:1005B4000423099305A9284801F0F6F80195236C52
:1005C40043F400132364236C03F400130193019B8D
:1005D400D8E7002502951F4C236B43F002032363E5
:1005E400236B03F002030293029B0395236B43F0F6
:1005F40004032363236B03F004030393039B4FF46B
:10060400806305934FF01208CDF8188003270897EC
:100614000426099605A9104801F0C6F84FF4805342
:100624000593CDF8188007950897099605A90B48F6
:1006340001F0BAF80495236C43F480032364236C1B
:1006440003F480030493049B9CE700BF0054004020
:1006540000580040003802400004024000080240F4
:1006640008B50A480A4B0360002343608360C360F3
:1006740003614FF4FA5242618361C361036201F082
:10068400BDFA00B908BD00F033F9FBE71C060020F1
:100694000030014008B50C480C4B03604FF4007265
:1006A4004260002383600321C16002614BF6803203
:1006B400426183610122C261036201F09FFA00B9C1
:1006C40008BD00F015F9FBE7D40500200038004010
:1006D400F0B5A5B0044600211F91209121912291EB
:1006E40023915C2208A804F075FC2368764A93429F
:1006F40004D0764A93426ED025B0F0BD022308930D
:1007040032220A920B930C2209920D930C9301232B
:10071400129308A801F0D8FE002856D100250195AF
:100724006B4B5A6C42F480525A645A6C02F48052F5
:100734000192019A02951A6B42F001021A631A6B34
:1007440002F001020292029A03951A6B42F002022D
:100754001A631B6B03F002030393039B48F28003A9
:100764001F930227209721952295052623961FA9DA
:10077400584801F019F808231F93209721952295D2
:1007840023961FA9544801F00FF85448544B0360B2
:100794004FF0C063436040238360C5604FF48063BF
:1007A400036145618561C5610562456200F04AFEE9
:1007B40070B94A4BA3639C6300221146232000F0C6
:1007C40069FD232000F076FD96E700F091F8A5E797
:1007D40000F08EF8EDE7012308934FF000731693B1
:1007E40008A801F071FE002868D100250495384B53
:1007F4001A6C42F480421A641A6C02F48042049225
:10080400049A05951A6B42F004021A631A6B02F0FB
:1008140004020592059A06951A6B42F001021A63C6
:100824001A6B02F001020692069A07951A6B42F0BF
:1008340002021A631B6B03F002030793079B022651
:100844001F96209621952295072323931FA92548B7
:1008540000F0AAFF40271F97209621952295062392
:1008640023931FA91B4800F09FFF4FF440531F938D
:10087400209621952295052323931FA9164800F05D
:1008840093FF1948194B036045608760C5604FF4B6
:100894008063036145618561C5610562456200F05D
:1008A400D1FD70B9104BA3639C6300221146242030
:1008B40000F0F0FC242000F0FDFC1DE700F018F827
:1008C40093E700F015F8EDE70030014000380040F0
:1008D4000038024000000240000402407405002079
:1008E4008864024000080240140500207060024041
:1008F40072B6FEE700B595B03422002107A804F0D3
:1009040069FB0023029303930493059306930093D6
:10091400234A116C41F080511164126C02F0805230
:100924000092009A01931F4B1A6842F440421A60E5
:100934001B6803F440430193019B012307934FF485
:100944008033089302230D934FF480020E920C22FD
:100954000F92B4221092119303221292139307A8B8
:1009640002F004FAB0B901F08FFAA8B90F23029388
:1009740002230393002304934FF4A05305934FF4ED
:1009840080530693052102A801F0C8FC30B915B0C4
:100994005DF804FBFFF7ACFFFFF7AAFFFFF7A8FF22
:1009A400003802400070004000B599B05C2200217C
:1009B40001A804F00FFB4FF4407301931023079335
:1009C400C023089302230A930623099301230C935B
:1009D4004FF00063169301A801F076FD10B919B029
:1009E4005DF804FBFFF784FF08B500F0CDFBFFF7CB
:1009F40081FFFFF7D9FFFFF7C7FCFFF71BFCFFF7E9
:100A040075FDFFF791FDFFF72BFE00F00FF800F0E6
:100A1400B7F800F077F9FFF73DFE00F095FA00F023
:100A240037FBFFF765FC00F075FAFEE708B50A48E6
:100A34000A4B0360FF234360012282600023C360EA
:100A4400026143618361C361036201F00FFC00B979
:100A540008BDFFF74DFFFBE7C4060020001000A00F
:100A64002DE9F0418AB00023059306930793089378
:100A7400099302683B4B9A4202D00AB0BDE8F08168
:100A8400044600250195384B9A6B42F002029A63A2
:100A94009A6B02F002020192019A02951A6B42F0DB
:100AA40010021A631A6B02F010020292029A039562
:100AB4001A6B42F008021A631A6B02F008020392DE
:100AC400039A04951A6B42F002021A631B6B03F03B
:100AD40002030493049B0423059302270697032629
:100AE40008964FF00908CDF8248005A91F4800F0A6
:100AF4005BFE43F608030593069707950896CDF821
:100B0400248005A91A4800F04FFE40230593069758
:100B1400079508960A23099305A9164800F044FE90
:100B24001548164B03604FF0C06343608560C56091
:100B34004FF48063036145618561C5610562456267
:100B440000F080FC58B90C4BE3639C63002211460F
:100B54005C2000F09FFB5C2000F0ACFB8DE7FFF70E
:100B6400C7FEF0E7001000A0003802400010024069
:100B7400000C02400004024064060020B8640240F5
:100B840008B50D480D4B0360002343608360C360C8
:100B940003614361836102F03FFE30B94FF40061A9
:100BA400054802F055FE18B908BDFFF7A1FEF5E7A8
:100BB400FFF79EFEF8E700BF70070020002C0140FD
:100BC4002DE9F0438BB00023059306930793089314
:100BD40009930268454B9A4202D00BB0BDE8F083FA
:100BE40004460025019503F586335A6C42F40062ED
:100BF4005A645A6C02F400620192019A02951A6BCB
:100C040042F002021A631A6B02F002020292029A82
:100C140003951A6B42F004021A631A6B02F0040281
:100C24000392039A04951A6B42F008021A631B6B31
:100C340003F008030493049B072305934FF0020871
:100C4400CDF81880032608960C27099705A928488B
:100C540000F0AAFD4FF410630593CDF818800795B2
:100C64000896099705A9234800F09EFD4FF0040952
:100C7400CDF81490CDF8188007950896099705A922
:100C84001D4800F091FD1D481D4B03604FF00063AB
:100C940043608560C5604FF4806303614FF4805303
:100CA40043614FF4804383612023C3614FF4803355
:100CB4000362C0F8249086624FF40003C3624FF4C9
:100CC4000013036300F0BEFB60B90C4B23649C6308
:100CD400E36300221146312000F0DCFA312000F0F9
:100CE400E9FA7AE7FFF704FEEFE700BF002C0140C2
:100CF4000004024000080240000C024010070020DB
:100D04005864024008B50D480D4B03604FF48273DC
:100D1400436000238360C360036143614FF4007246
:100D24008261C3610362436283620A23C36202F085
:100D340029FF00B908BDFFF7DBFDFBE754080020DD
:100D44000034014030B589B0002303930493059324
:100D5400069307930268264B9A4201D009B030BD2E
:100D640004460025019503F582335A6C42F400527F
:100D74005A645A6C02F400520192019A02951A6B59
:100D840042F010021A631B6B03F010030293029BE0
:100D94004FF4A043039302230493032306930523F0
:100DA400079303A9134800F0FFFC1348134B036097
:100DB4004FF00063436040238360C5604FF4806359
:100DC400036145618561C5610562456200F03AFBD6
:100DD40058B9094BA3649C6300221146542000F0C7
:100DE40059FA542000F066FAB8E7FFF781FDF0E7FE
:100DF4000034014000100240F4070020286402403F
:100E040082B0002100910B4B5A6C42F480425A6428
:100E14005A6C02F480420092009A01911A6C42F0DA
:100E240080521A641B6C03F080530193019B02B03F
:100E3400704700BF00380240FEE7FEE7FEE7FEE72A
:100E4400FEE770477047704708B500F0B7F908BD72
:100E540008B5024800F0BAFB08BD00BFAC0800208A
:100E640008B5024800F0B2FB08BD00BF140500201D
:100E740008B5024800F060FF08BD00BF1C06002052
:100E840008B5024800F058FF08BD00BFD405002093
:100E940008B5024802F092FD08BD00BF70070020AB
:100EA40008B5024803F036F908BD00BF5009002018
:100EB40008B5024800F08AFB08BD00BFF407002013
:100EC40008B5024800F082FB08BD00BF10070020EF
:100ED40008B5024800F07AFB08BD00BF7405002085
:100EE40008B5024800F072FB08BD00BF640600208C
:100EF40008B5024802F0A6FE08BD00BF5408002051
:100F040008B5024801F08AF808BD00BFC4060020F5
:100F14007047000008B50A480A4B03604FF4E133F8
:100F2400436000238360C36003610C2242618361D8
:100F3400C36103F030F800B908BDFFF7D9FCFBE743
:100F440050090020004C004008B50A480A4B0360D1
:100F54004FF4E133436000238360C36003610C22D8
:100F640042618361C36102F0E7FF00B908BDFFF786
:100F7400BFFCFBE70C0900200010014030B58BB02A
:100F840000230593069307930893099303683A4A49
:100F9400934204D0394A93424AD00BB030BD044640
:100FA40000250195364B1A6C42F400221A641A6C1F
:100FB40002F400220192019A02951A6B42F0010296
:100FC4001A631B6B03F001030293029B0123059335
:100FD40012230693032308930823099305A9294898
:100FE40000F0E2FB2848294B03604FF000634360A4
:100FF4008560C5604FF480630361456185614FF48A
:101004008073C3614FF440330362456200F01AFAFF
:1010140058B91D4BA3639C6300221146342000F091
:1010240039F9342000F046F9B7E7FFF761FCF0E73F
:1010340000210391124B5A6C42F010025A645A6C0C
:1010440002F010020392039A04911A6B42F0010217
:101054001A631B6B03F001030493049B4FF4C063F6
:10106400059302230693032308930723099305A9F1
:10107400044800F099FB90E7004C00400010014048
:101084000038024000000240AC08002040600240EA
:1010940008B50B480B4B0360102383600123C36026
:1010A4000023036102228261C3610362C36243635A
:1010B40000F074FC00B908BDFFF71AFCFBE700BFA1
:1010C400940900200000044030B589B00023039344
:1010D40004930593069307930268154B9A4201D033
:1010E40009B030BD00250195124C236B43F0020377
:1010F4002363236B03F002030193019B4FF44043EA
:10110400039302230493032306930C2307930DEB09
:101114000301094800F048FB0295236B43F0005398
:101124002363236B03F000530293029BD8E700BFB1
:1011340000000440003802400004024010B5044698
:101144000E4B1A784FF47A73B3FBF2F30C4A10681F
:10115400B0FBF3F000F0BCF868B90F2C01D9012002
:101164000AE0002221464FF0FF3000F093F8054BCF
:101174001C60002000E0012010BD00BF040000201E
:10118400000000200800002008B50B4B1A6842F448
:1011940000721A601A6842F480621A601A6842F493
:1011A40080721A60032000F063F80F20FFF7C6FF77
:1011B400FFF726FE002008BD003C0240034A1168E8
:1011C400034B1B780B441360704700BF980C00203E
:1011D40004000020014B1868704700BF980C0020E1
:1011E40038B50446FFF7F6FF0546B4F1FF3F02D0D9
:1011F400044B1B781C44FFF7EDFF401BA042FAD3BD
:1012040038BD00BF04000020002808DB0901C9B272
:1012140000F1604000F5614080F80013704700F071
:101224000F000901C9B2014B1954704714ED00E0D5
:1012340000B500F00700C0F1070CBCF1040F28BF93
:101244004FF0040C031D062B0FD9C31E4FF0FF3EB5
:101254000EFA0CF021EA000199400EFA03FE22EA8C
:101264000E0241EA02005DF804FB0023EEE70000F1
:10127400074AD36823F4E0631B041B0C000200F448
:10128400E060034343F0BF6343F40033D36070472B
:1012940000ED00E010B50446054BD868C0F3022009
:1012A400FFF7C6FF01462046FFF7AEFF10BD00BFA3
:1012B40000ED00E0002807DB00F01F0240090123D5
:1012C4009340024A42F82030704700BF00E100E03A
:1012D4000138B0F1807F0BD24FF0E0235861054A0A
:1012E400F02182F823100020986107221A617047C8
:1012F4000120704700ED00E070B110B50446037999
:1013040033B102232371002020610123237110BD16
:101314004371FEF7B9FFF4E701207047034608461E
:101324005979012924D010B54FF0010E83F805E056
:10133400022119711C68216802F0100240F6FE7C3B
:101344000CFA02FC21EA0C0C01684068014391404C
:1013540041EA0C0121601C682168C02000FA02F2F5
:1013640021EA0202226083F804E00020587110BDD3
:101374000220704710B40368D9B210390B4AA2FB9B
:10138400014212090A4CA25CC2655F2908D923F400
:101394007F7323F0030304338365806D10BC7047AF
:1013A40023F47F7323F003038365F6E7ABAAAAAAA9
:1013B4004C510008836A826992B9012B0AD0022B2E
:1013C40002D00BB100207047C36A13F0807F28D18C
:1013D40000207047C36AB3F1C07F24D00020704757
:1013E400B2F5005F09D0022B25D9032B25D1C36A9E
:1013F40013F0807F23D100207047032B03D8DFE84C
:1014040003F01404140A00207047C36A13F0807FA9
:101414000DD100207047C36AB3F1C07F09D000200A
:101424007047012070470120704701207047012058
:101434007047012070470120704700207047012049
:101444007047000070B50446FFF7C4FE002C5BD063
:101454000546022384F83530002384F834302268AA
:10146400136823F00103136023681A6812F0010F54
:101474000AD0FFF7AFFE431B052BF5D92023636584
:10148400032084F8350070BD1A6820491140626851
:10149400A0680243E0680243206902436069024392
:1014A400A0690243E0690243206A02430A43616A75
:1014B40004291ED01A602668756925F00705636A39
:1014C4001D43042B07D1A36A1D43E36A1BB12046C5
:1014D400FFF770FF90B975612046FFF74BFFE26D8F
:1014E4003F239340836000206065012384F83530F6
:1014F400C9E7E16A206B01430A43DBE740236365E4
:10150400012084F83500BEE70120BCE73F8010F0DD
:1015140070B50446866DFFF75DFE94F83530DBB296
:10152400022B06D080236365002384F83430012025
:1015340070BD05462268136823F016031360226801
:10154400536923F080035361236CE3B12268136869
:1015540023F0080313602268136823F00103136067
:1015640023681B6813F0010F11D0FFF733FE431BF0
:10157400052BF5D920236365032084F83500002367
:1015840084F83430D4E7A36C002BDFD1E3E7E26DB9
:101594003F239340B360012384F83530002084F85E
:1015A4003400C5E790F83530DBB2022B03D080233A
:1015B400436501207047052380F8353002681368BD
:1015C40023F001031360002070470000F0B583B0DE
:1015D400044600230193724B1D68724BA3FB05352F
:1015E400AD0A876D3E68C26D08239340334210D024
:1015F40003681A6812F0040F0BD01A6822F0040270
:101604001A60C26D08239340BB60436D43F001032D
:101614004365E26D01239340334209D02268526945
:1016240012F0800F04D0BB60636D43F00203636566
:10163400E26D04239340334209D02268126812F009
:10164400020F04D0BB60636D43F004036365E26D75
:1016540010239340334224D02268126812F0080FFA
:101664001FD0BB6023681A6812F4802F0DD01B684A
:1016740013F4002F04D1236C9BB12046984710E04B
:10168400A36C73B1204698470BE01A6812F4807F6C
:1016940003D11A6822F008021A60236C0BB12046A9
:1016A4009847E26D20239340334255D02268126854
:1016B40012F0100F50D0BB6094F83530DBB2052B1C
:1016C4000ED023681A6812F4802F33D01B6813F4E9
:1016D400002F2AD1636C002B3ED0204698473BE074
:1016E4002268136823F0160313602268536923F0F9
:1016F40080035361236CA3B12268136823F00803A9
:101704001360E26D3F239340BB60012384F83530BE
:10171400002384F83430236D002B3FD020469847B3
:101724003CE0A36C002BE7D1EBE7E36BA3B12046CD
:10173400984711E01A6812F4807F09D11A6822F0E0
:1017440010021A60012384F83530002384F8343001
:10175400E36B0BB120469847636DFBB1636D13F0E7
:10176400010F17D0052384F835302268136823F05D
:1017740001031360019B01330193AB4204D8236836
:101784001B6813F0010FF5D1012384F835300023D1
:1017940084F83430E36C0BB12046984703B0F0BDB5
:1017A40000000020B5814E1B00230F2B00F2E680C1
:1017B40030B583B068E085684FEA430E032404FA29
:1017C4000EF425EA0405CC6804FA0EF42C43846074
:1017D400446824EA02044A68C2F300129A4022438D
:1017E40042605FE0DC08083450F8242003F0070569
:1017F400AD004FF00F0E0EFA05FE22EA0E0E0A6936
:10180400AA4042EA0E0240F824205FE0062200E0EB
:10181400002202FA0EF22A430234594D45F82420DC
:10182400584A14686FEA0C0224EA0C05D1F804E063
:101834001EF4803F01D04CEA0405524C25606468D4
:1018440002EA0405D1F804E01EF4003F01D04CEA9A
:1018540004054C4C6560A46802EA0405D1F804E070
:101864001EF4801F01D04CEA0405464CA560E468D0
:1018740022404D6815F4001F01D04CEA0402414C8B
:10188400E26001330F2B77D801229A400C6804EAF6
:10189400020C32EA0404F4D14C6804F00304013C61
:1018A400012C88D94A6802F00302032A09D0C468CB
:1018B4005D000322AA4024EA02048A68AA40224363
:1018C400C2604A6802F00302022A8BD004684FEA1D
:1018D400430E032202FA0EF224EA02044A6802F0DA
:1018E400030202FA0EF2224302604A6812F4403FF5
:1018F400C7D000220192244A546C44F480445464B6
:10190400526C02F480420192019A9C08A51C1C4A64
:1019140052F8255003F0030E4FEA8E0E0F2202FAFE
:101924000EF225EA0205194A90423FF471AF02F51E
:101934008062904216D002F58062904214D002F583
:101944008062904212D002F58062904210D002F57B
:10195400806290420ED002F5806290423FF456AF0E
:10196400072256E7012254E7022252E7032250E7F6
:1019740004224EE705224CE703B030BD704700BF98
:1019840000380140003C01400038024000000240A1
:101994000AB18161704709048161704700284DD004
:1019A40070B58AB00446056890F8F932002B40D02F
:1019B400032384F8F932EB6B13F4807F01D1002305
:1019C4002361206803F073F8A4465CF8106BEE46BC
:1019D400BCE80F00AEE80F00BCE80F00AEE80F0053
:1019E4009CE803008EE80300251D95E80E003046B0
:1019F40003F018F80121206803F092F8A4465CF87B
:101A0400106BEE46BCE80F00AEE80F00BCE80F0018
:101A1400AEE80F009CE803008EE8030095E80E0092
:101A2400304603F0AFF8012384F8F93200200AB0FD
:101A340070BD80F8F832FFF747FBB9E70120704723
:101A4400002800F0CC8070B5044690F83D30002B9F
:101A540077D0242384F83D302268136823F00103EF
:101A640013602268136843F4004313602268136808
:101A740023F40043136000F007FD62685A4B9A4256
:101A840064D85A4B98428CBF00230123002B40F0AA
:101A9400A8805749A1FB00318B0C25686A6822F0A5
:101AA4003F0242EA91426A6021680A6A22F03F02D8
:101AB40066684D4DAE424FD8013313430B62216823
:101AC400CA6922F44F4222F0FF026568464B9D42E8
:101AD4004CD8431E6D00B3FBF5F3013340F6FC70A4
:101AE400034278D0C3F30B031A43CA6121680B681D
:101AF40023F0C003E269206A024313430B602168A8
:101B04008B6823F4034323F0FF032269E068024354
:101B140013438B602168CB6823F0FF036269A069DB
:101B240002431343CB602268136843F0010313603C
:101B340000202064202384F83D30206384F83E0094
:101B440070BD80F83C30FEF70DFD82E7294B9842CA
:101B54008CBF0023012399E74FF4967505FB03F32B
:101B6400254DA5FB03539B090133A6E7A668BEB91F
:101B7400431E05EB450CB3FBFCF30133C3F30B032A
:101B8400B3FA83F35B0943BBC6B9431E05EB4505B2
:101B9400B3FBF5F30133C3F30B0343F40043A3E7AF
:101BA400431E05EB850C0CEB8C0CB3FBFCF30133EF
:101BB400C3F30B03B3FA83F35B09E4E7431E05EBBA
:101BC400850505EB8505B3FBF5F30133C3F30B037F
:101BD40043F4404388E7042386E7012384E7012094
:101BE40070470120ACE700BFA08601007F841E007F
:101BF40083DE1B43FF083D00D34D6210002800F034
:101C0400928038B5044690F841300BB3022284F830
:101C140041202168CB6923F47B6323F00F03CB615C
:101C240023681A626369934275D0E368BBB91025CF
:101C3400A368202B00D86D0023683C4A934210D03F
:101C440002F5806293420CD0022000F077FE0BE094
:101C540080F84030364B4363FEF73AFDD6E7202543
:101C6400E6E7012000F06AFE2369B3F5007F3AD06D
:101C7400B0FBF5F000EB800043006269B3FBF2F3C4
:101C840005332C4AA2FB0323C3F3C002C2EBD303E4
:101C94005B0811029A1EFD2A3FD822690A43216873
:101CA4001A430A622168CB6923F47B6323F00F0390
:101CB4006268A0680243E0680243A06902431343D8
:101CC40043F40063CB61A368302B01D0B02B04D163
:101CD4002268D36943F48053D361002060640123F4
:101CE40084F8413038BDE36853B1AD00B0FBF5F082
:101CF40000EB800043006269B3FBF2F30533C0E7F5
:101D0400ED00B0FBF5F000EB800043006269B3FB2B
:101D1400F2F30533B5E70021BCE7636C43F010032D
:101D240063640120DEE70120704700BF00380040F3
:101D3400BB1D0008CDCCCCCC08B5436B984708BD7F
:101D4400704708B5426A03681288DA60436A02334E
:101D54004362438D9BB2013B9BB24385438D9BB24F
:101D640003B108BD0268536823F0A0035360012344
:101D740080F84130FFF7E4FFF3E7704708B50368E4
:101D8400DA68C36A1A80C36A0233C362438E9BB2A1
:101D9400013B9BB24386438E9BB203B108BD0268EC
:101DA400536823F060035360012380F84130FFF748
:101DB400E4FFF3E7704710B584B004460268936803
:101DC400039390F84130DBB2042B06D094F84130F1
:101DD400DBB2032B2CD004B010BD039B13F0010F16
:101DE40003D0536813F0400F1FD1039B13F0400F2F
:101DF400ECD023685A6812F0200FE7D05A6822F01A
:101E040060025A60002301932368DA6801929B6898
:101E14000193019B012384F84130636C43F0020376
:101E240063642046FFF7C6FFD0E7FFF7A7FFDCE7B0
:101E3400039B13F0020F04D023685B6813F0800F38
:101E44001DD1039B13F0080FC5D023685A6812F004
:101E5400200FC0D05A6822F0A0025A6000230293D7
:101E640023689B680293029B012384F84130636CCE
:101E740043F0040363642046FFF79CFFABE720466E
:101E8400FFF75FFFDDE7000010B582B00023019388
:101E9400194B1A6C42F080521A641B6C03F0805385
:101EA4000193019B154B01221A64FFF793F9044631
:101EB400134B5B6813F4803F08D1FFF78BF9001BC9
:101EC400B0F57A7FF4D9032002B010BD0B4B012288
:101ED4005A64FFF77FF90446094B5B6813F4003F2B
:101EE40007D1FFF777F9001BB0F57A7FF4D9032007
:101EF400EAE70020E8E700BF0038024000000E4295
:101F0400007000402DE9F84305460F4616469946F1
:101F1400DDF820802C68A4683C4214BF4FF0010C0B
:101F24004FF0000CB44514D0B8F1FF3FF2D0FFF7E6
:101F340051F9A0EB0900404502D8B8F1000FE9D1EE
:101F4400042385F841306B6C43F001036B6401207A
:101F540000E00020BDE8F883704708B5806B0023DB
:101F64008363C36290F84130DBB2082B0DD1036860
:101F74000222DA600268136843F4003313600268D3
:101F8400136843F00203136008BD012380F8413055
:101F9400FFF7E2FFF8E770477047704770477047F4
:101FA4007047704790F8413013F0020F32D010B5EB
:101FB4000446002380F84030082380F8413002684A
:101FC400136823F4F813136003681A6812F0040FFB
:101FD4000DD10222DA600268136843F400331360FF
:101FE4000268136843F002031360002010BD1A68EE
:101FF40022F004021A60C36B074A1A65C06BFFF72C
:10200400D1FA0028F1D0012384F841302046FFF7AB
:10201400C2FFEAE7002070475F1F000810B50446BE
:1020240003689A68196812F0040F3FD011F4802FE6
:102034003CD090F84120D2B2122A12D090F841201C
:10204400D2B2222A1FD02046FFF7A9FF10BD626A30
:10205400127883F82020626A01326262E26A013AED
:10206400E2622268916811F0040FECD0E16A002961
:10207400EDD1136823F480231360E4E7136823F499
:1020840080231360DFE72268916811F0040FDAD02F
:10209400A16B0029F2D0226B93F820101170226BEF
:1020A40001322263A26B013AA263ECE712F0020F41
:1020B4007CD011F4003F79D00222DA6022681368E0
:1020C40023F4E023136094F84130DBB2122B1DD0CB
:1020D40094F84130DBB2222B31D094F84130DBB29A
:1020E400022B58D094F84130DBB2082BAED12268D1
:1020F400536923F040635361012384F84130636CD6
:10210400002B4FD12046FFF746FF9FE723681A684C
:1021140012F0040F09D01A6822F004021A60E36B6B
:102124001A68136823F0010313602046FFF73AFF8F
:10213400012384F841302046FFF730FF86E7216809
:102144000B6813F0040F13D00B6823F004030B6027
:10215400E36B1A68136823F0010313602046FFF74A
:1021640021FF012384F841302046FFF716FF6DE775
:1021740023689B6813F47C5FF0D0A36B002BEDD035
:10218400236B91F820201A70236B01332363A36B14
:10219400013BA363ECE7012384F841302046FFF7B9
:1021A400FBFE53E72046FFF7D7FE4FE712F0080F78
:1021B40014D011F4002F11D00822DA6023681A68B1
:1021C40012F4800F06D01A6822F410221A60012338
:1021D40084F841302046FFF7E3FE37E712F0010FA1
:1021E40031D011F4803F2ED00122DA6022681368C6
:1021F40023F470231360636C43F002036364236865
:102204001A6812F0040F17D01A6822F004021A6038
:10221400E36B144A1A65E06BFFF7C4F900283FF436
:1022240015AF636C43F004036364012384F8413005
:102234002046FFF791FE09E7012384F84130204648
:10224400FFF78AFE02E712F0100F3FF4FFAE11F41D
:10225400801F3FF4FBAE1022DA602046FFF7A1FE98
:10226400F4E600BF5F1F00088164704770B582B058
:102274000446FEF7AFFF002C4CD0064694F84130DC
:10228400002B3CD025682A6822F4F852A168013951
:1022940042EA01222A60A36C0093334600222021E3
:1022A4002046FFF72FFE28BB21680B6823F07F43ED
:1022B40023F0D0036568E26842EA0562E5692A43CF
:1022C400256A2A4313430B6021684A68124B134062
:1022D4002569626942EA0542A5692A4313434B60B2
:1022E4002268136843F0010313600023636401232D
:1022F40084F84130002384F8403002B070BD84F883
:1023040040302046FEF7ACFB41F288312046FFF70F
:10231400ABFFB7E70120F0E7FEF8E0FF002800F08C
:102324009B8070B50D4604464F4B1B6803F00F03AA
:102334008B4208D2CBB24C4A1370136803F00F03DC
:102344008B4240F08B80236813F0020F17D013F0F8
:10235400040F04D0454A936843F4E0539360236820
:1023640013F0080F04D0414A936843F46043936028
:102374003E4A936823F0F003A1680B4393602368FB
:1023840013F0010F32D06368012B21D09A1E012A69
:1023940025D9364A126812F0020F61D033498A688F
:1023A40022F0030213438B60FEF714FF06462F4B03
:1023B4009B6803F00C036268B3EB820F16D0FEF740
:1023C40009FF801B41F288339842F0D9032042E090
:1023D400264A126812F4003FE0D101203BE0234A70
:1023E400126812F0007FD9D1012034E01E4B1B6823
:1023F40003F00F03AB4207D9EAB21B4B1A701B68F8
:1024040003F00F03AB422DD1236813F0040F06D061
:10241400164A936823F4E053E1680B4393602368FE
:1024240013F0080F07D0114A936823F4604321691D
:1024340043EAC103936000F005FC0C4B9B68C3F3B3
:1024440003130B4AD35CD8400A4B18600A4B186834
:10245400FEF774FE002070BD012070470120FAE7EA
:102464000120F8E70120F6E7003C02400038024072
:102474003C5100080000002008000020014B1868AF
:10248400704700BF0000002008B5FFF7F7FF044BBA
:102494009B68C3F38223034AD35CD84008BD00BFC2
:1024A400003802403451000808B5FFF7E7FF044B39
:1024B4009B68C3F34233034AD35CD84008BD00BFD2
:1024C4000038024034510008F0B583B00446066871
:1024D40016F001060DD0964AD2F88C3023F0C06372
:1024E400816B0B43C2F88C30836B002B00F09B8014
:1024F4000026236813F0020F0BD08D4AD2F88C30DB
:1025040023F0C053E16B0B43C2F88C30E36B03B987
:102514000126256815F004050FD0854AD2F88C30C1
:1025240023F44013216B0B43C2F88C30236BB3F5B7
:10253400801F7AD0002B7AD00025236813F0080F6F
:102544000ED07B4AD2F88C3023F44003616B0B43EA
:10255400C2F88C30636BB3F5800F6AD003B90125E0
:10256400236813F0200F66D1236813F0100F04D0F2
:1025740094F858206F4BC3F8E021236813F0800FC0
:1025840008D06B4AD2F8943023F44003E16C0B4337
:10259400C2F89430236813F0400F08D0644AD2F88C
:1025A400943023F08063A16C0B43C2F89430236809
:1025B40013F4807F0DD05E4AD2F8943023F0006388
:1025C400616D0B43C2F89430636DB3F1006F00F09A
:1025D4009B80236813F4007F08D0554AD2F89430C6
:1025E40023F08053616C0B43C2F89430236813F4D6
:1025F400806F0CD04E4AD2F8943023F00053216DF2
:102604000B43C2F89430236DB3F1005F7ED0002EEB
:102614007CD12368B3F5006F78D0012D00F02581BB
:10262400002003B0F0BD012663E7012682E70125FF
:1026340083E7012692E7002301933D4B1A6C42F095
:1026440080521A641B6C03F080530193019B3A4A35
:10265400136843F480731360FEF7BCFD0746364BE2
:102664001B6813F4807F06D1FEF7B4FDC01B02285B
:10267400F5D90320D5E72E4B1B6F13F4407314D008
:10268400226C02F440729A420FD0294B1A6F22F442
:1026940040722A490120C1F8400E0020C1F8400EC2
:1026A4001A671B6F13F0010F12D1236C03F44072ED
:1026B400B2F5407F1DD01E4A936823F4F81393604B
:1026C4001B490B6F226CC2F30B0213430B674BE7DE
:1026D400FEF780FD0746164B1B6F13F0020FE4D183
:1026E400FEF778FDC01B41F288339842F3D90320EA
:1026F40097E70F498A6822F4F81223F0704323F411
:10270400407313438B60DBE7012562E70B4B002228
:102714009A66FEF75FFD0646054B1B6813F0006FD3
:102724000ED0FEF757FD801B0228F5D9032078E769
:102734000038024000104742007000400000474249
:10274400236813F0010F01D0A26B22B113F0020F22
:1027540015D0E36B9BB9774AD2F88400D2F8841081
:102764006368A66843EA861300F44030034301F02B
:1027740070610B43616943EA0173C2F884302368D2
:1027840013F0040F03D0226BB2F5801F06D013F0B0
:10279400080F20D0636BB3F5800F1CD1654AD2F8C3
:1027A4008400D2F884106368A66843EA861300F4B0
:1027B40040300343206943EA006301F0E0410B43E6
:1027C400C2F88430D2F88C3023F01F03A16A013997
:1027D4000B43C2F88C30236813F4806F03D0236D4D
:1027E400B3F1005F28D0236813F4006F11D063683D
:1027F400A26843EA8213E2685208013A43EA0243B8
:10280400226943EA0263626943EA0273494AC2F8ED
:102814008430494B01229A66FEF7DCFC0646454BA0
:102824001B6813F0006F7FF4F8AEFEF7D3FC801B37
:102834000228F4D90320F4E63E48D0F88420C2F3F9
:1028440001420132D0F884606368A16843EA8113CD
:10285400E1684908013943EA014343EA426306F067
:10286400E0421343C0F88430BDE7334B00221A67BB
:10287400FEF7B0FC05462F4B1B6813F0005F06D033
:10288400FEF7A8FC401B0228F5D90320C9E62368FB
:1028940013F0040F01D0226B22B113F0080F1AD0E9
:1028A400636BC3B9234AD2F88810A369E06943EA89
:1028B400801301F440310B43616A43EA0163C2F8B7
:1028C4008830D2F88C3023F4F853E16A013943EAB2
:1028D4000123C2F88C30236813F4807F03D0636D26
:1028E400B3F1006F11D0144B01221A67FEF772FC8A
:1028F4000446104B1B6813F0005F18D1FEF76AFC06
:10290400001B0228F5D903208BE60A48D0F888106A
:10291400A369E26943EA8213226A5208013A43EA4C
:10292400024301F070621343C0F88830DBE70020F3
:1029340077E600BF0038024000004742013807280C
:1029440000F26681DFE810F0A400050164010800CC
:102954006401640164010800AF4BD3F88C3003F4C4
:102964007003B3F5401F00F055810DD9B3F5000F86
:102974006ED0B3F5400F32D1A74B5B6813F4800FD0
:1029840040F05281A5487047B3F5801F35D0B3F5A8
:10299400001F5DD00BBBA04B5B6813F4800F23D1E9
:1029A4009D4BD3F8883003F03F039C49B1FBF3F10E
:1029B400994BD3F88820C2F30362D3F88800C0F39C
:1029C400881001FB00F0B0FBF2F0D3F88C30C3F3B5
:1029D40004230133B0FBF3F0704700207047B3F5D4
:1029E400800F0AD0002070478B4BD3F8883003F057
:1029F4003F038B49B1FBF3F1DAE7874B5B6813F4D0
:102A0400800F1CD1844BD3F8843003F03F038349F7
:102A1400B1FBF3F1804BD3F88420C2F30362D3F803
:102A24008400C0F3881001FB00F0B0FBF2F0D3F88F
:102A34008C3003F01F030133B0FBF3F07047764B87
:102A4400D3F8843003F03F037549B1FBF3F1E1E7B8
:102A5400714B5B6813F4800F12D16F4B5B6803F00A
:102A64003F036E4AB2FBF3F26B494B68C3F3027344
:102A74004868C0F3881002FB00F0B0FBF3F0704725
:102A8400654B5B6803F03F03654AB2FBF3F2EBE787
:102A9400614BD3F88C3003F0C063B3F1806F38D04E
:102AA40006D893B1B3F1007F40F0C0805D48704711
:102AB400B3F1C06F07D1584B5B6813F4800F00F07B
:102AC400B7805748704700207047534B5B6813F436
:102AD400800F15D0504BD3F8842002F03F02504BA6
:102AE400B3FBF2F34C4AD2F88400C0F3881003FB22
:102AF40000F0D2F88430C3F30273B0FBF3F07047F4
:102B0400454BD3F8842002F03F02444BB3FBF2F36D
:102B1400E8E7414B5B6813F4800F12D03E4B5A68D0
:102B240002F03F023E4BB3FBF2F33B4A5068C0F362
:102B3400881003FB00F05368C3F30273B0FBF3F097
:102B44007047354B5A6802F03F02344BB3FBF2F343
:102B5400EBE7314BD3F88C3003F0C053B3F1805F13
:102B640036D005D883B1B3F1006F63D12D487047D7
:102B7400B3F1C05F06D1284B5B6813F4800F5BD0C0
:102B84002748704700207047234B5B6813F4800F7D
:102B940015D0214BD3F8842002F03F02204BB3FB25
:102BA400F2F31D4AD2F88400C0F3881003FB00F04E
:102BB400D2F88430C3F30273B0FBF3F07047164BC2
:102BC400D3F8842002F03F02144BB3FBF2F3E8E79E
:102BD400114B5B6813F4800F12D00F4B5A6802F04C
:102BE4003F020F4BB3FBF2F30B4A5068C0F388105B
:102BF40003FB00F05368C3F30273B0FBF3F07047B8
:102C0400054B5A6802F03F02044BB3FBF2F3EBE7C7
:102C14000020704703487047003802400024F40045
:102C240000366E010000EE02044870470020704731
:102C340003487047002070470148704700366E0112
:102C44000024F40008B5464B9B6803F00C03082BE2
:102C540007D00C2B45D0042B01D0424808BD424874
:102C6400FCE73F4B5A6802F03F025B6813F4800FA5
:102C740012D03B4B5968C1F388113B480023A1FB98
:102C84000001FDF79DFA364B5B68C3F30143013342
:102C94005B00B0FBF3F0E1E7314B5868C0F38810F8
:102CA4004FEA401CBCEB000C6EEB0E0E4FEA8E1389
:102CB40043EA9C634FEA8C11B1EB0C0163EB0E0306
:102CC400DB0043EA5173C90011EB000C43F100032C
:102CD400990200234FEA8C2041EA9C51FDF770FAD7
:102CE400D1E71F4B5A6802F03F025B6813F4800F70
:102CF40010D01B4B5968C1F388111B480023A1FB5A
:102D04000001FDF75DFA164B5B68C3F30273B0FB79
:102D1400F3F0A3E7124B5868C0F388104FEA401C45
:102D2400BCEB000C6EEB0E0E4FEA8E1343EA9C6371
:102D34004FEA8C11B1EB0C0163EB0E03DB0043EAA9
:102D44005173C90011EB000C43F1000399020023F5
:102D54004FEA8C2041EA9C51FDF732FAD3E700BFD9
:102D6400003802400024F40000366E01002800F010
:102D7400018270B582B00446036813F0010F41D09C
:102D8400994B9B6803F00C03042B32D0964B9B6841
:102D940003F00C03082B27D0934B9B6803F00C0320
:102DA4000C2B59D06368B3F5803F5BD0B3F5A02FEB
:102DB4005ED08D4B1A6822F480321A601A6822F4AD
:102DC40080221A606368002B5CD0FEF703FA054684
:102DD400854B1B6813F4003F14D1FEF7FBF9401B2D
:102DE4006428F5D90320CCE17F4B5B6813F4800F92
:102DF400D2D07D4B1B6813F4003F03D06368002BD3
:102E040000F0BA81236813F0020F60D0764B9B6800
:102E140013F00C0F4AD0744B9B6803F00C03082B7F
:102E24003FD0714B9B6803F00C030C2B69D0E36813
:102E3400002B75D06D4B01221A60FEF7CBF90546C5
:102E4400694B1B6813F0020F61D1FEF7C3F9401BF5
:102E54000228F5D9032094E1634B5B6813F4800FD7
:102E6400A0D0C6E7604A136843F480331360A9E72F
:102E74005D4B1A6842F480221A601A6842F4803268
:102E84001A609FE7FEF7A6F90546574B1B6813F433
:102E9400003FB7D0FEF79EF9401B6428F5D9032004
:102EA4006FE1514B5B6813F4800FBAD14E4B1B6832
:102EB40013F0020F03D0E368012B40F05F814A4A0C
:102EC400136823F0F803216943EAC10313602368FC
:102ED40013F0080F49D06369002B33D0434B012210
:102EE400C3F8802EFEF776F905463F4B5B6F13F06F
:102EF400020F3AD1FEF76EF9401B0228F5D90320E0
:102F04003FE1394B5B6813F4800F90D1CEE7364A2A
:102F1400136823F0F803216943EAC1031360D6E779
:102F2400324B00221A60FEF755F905462E4B1B68FA
:102F340013F0020FCBD0FEF74DF9401B0228F5D950
:102F440003201EE1294B0022C3F8802EFEF742F92C
:102F54000546254B5B6F13F0020F06D0FEF73AF9D6
:102F6400401B0228F5D903200BE1236813F0040F5A
:102F740076D01D4B1B6C13F0805F33D1002301937B
:102F8400194B1A6C42F080521A641B6C03F0805384
:102F94000193019B0125164B1B6813F4807F29D0F4
:102FA400A368012B3AD0052B3ED00F4B1A6F22F0A9
:102FB40001021A671A6F22F004021A67A368002B31
:102FC4003CD0FEF707F90646074B1B6F13F0020FC0
:102FD40045D1FEF7FFF8801B41F288339842F3D9BC
:102FE4000320CEE00025D6E7003802400000474227
:102FF400007000406B4A136843F480731360FEF75B
:10300400E9F80646674B1B6813F4807FC8D1FEF7C6
:10301400E1F8801B0228F5D90320B2E0624A136F5D
:1030240043F001031367C9E75F4B1A6F42F00402D0
:103034001A671A6F42F001021A67BFE7FEF7CAF86F
:103044000646594B1B6F13F0020F08D0FEF7C2F867
:10305400801B41F288339842F3D9032091E0EDB903
:10306400A369002B00F08C804F4A926802F00C0296
:10307400082A54D0022B17D04C4B00221A66FEF7B4
:10308400A9F80446484B1B6813F0007F45D0FEF7AF
:10309400A1F8001B0228F5D9032072E0424A136C00
:1030A40023F080531364DBE7404B00221A66FEF7DB
:1030B40091F805463C4B1B6813F0007F06D0FEF7E1
:1030C40089F8401B0228F5D903205AE0E369226AF3
:1030D4001343626A43EA8213A26A5208013A43EA3A
:1030E4000243E26A43EA0263226B43EA02732E4A12
:1030F40053602E4B01221A66FEF76CF804462A4BE5
:103104001B6813F0007F06D1FEF764F8001B022849
:10311400F5D9032035E0002033E0002031E0012B15
:1031240031D0214B5B6803F48001E26991422CD1D8
:1031340003F03F02216A8A4229D1616A47F6C072CC
:103144001A40B2EB811F24D103F44031A26A520821
:10315400013AB1EB024F1ED103F07062E16AB2EBA7
:10316400016F1AD103F0E043226BB3EB027F16D157
:10317400002006E001207047012002E0012000E069
:10318400002002B070BD0120FBE70120F9E7012017
:10319400F7E70120F5E70120F3E70120F1E701203B
:1031A400EFE700BF007000400038024000004742D3
:1031B40070B582B0044600230193006801F026FB39
:1031C400054610B1284602B070BD206801F031FBFD
:1031D40038B90123A364A36C012B0BD02E462846D7
:1031E40014E00023A364206801F010FB0028F2D04F
:1031F4000546E7E70021206801F032FB0028EDD006
:103204004FF08055DEE7019B01330193019A4FF69D
:10321400FE739A4213D896B90021206801F020FB6E
:10322400E0B91249206801F033FB0646C0B9002119
:10323400206801F091F9C30FE5D01E46E3E7019A37
:103244004FF6FE739A420ED810F0804302D0012349
:103254006364B7E7002262641D46B3E70546B1E73D
:103264004FF08055AEE74FF08075ABE7000010C11A
:10327400F8B5846AC66AA6B9F8BD386801F043F99E
:103284002070C0F307236370C0F30743A370000EDC
:10329400E0700434043E0135072DEED9BC62FE62B1
:1032A400EAE707460025F7E7F0B583B0046A466A03
:1032B400DEB903B0F0BD23780193627843EA0223B8
:1032C4000193A27843EA02430193E27843EA02635A
:1032D40001930434043E01A9386801F017F901355B
:1032E400072DE8D93C627E62E3E707460025F7E74D
:1032F400F0B589B004460F46FDF76CFF064600237F
:10330400009301930821206801F036FA054610B1B4
:10331400284609B0F0BD216D0904206801F0A0FA27
:1033240005460028F4D14FF0FF330293082303939A
:103334003023049302230593002306930123079368
:1033440002A9206801F006FA206801F0D2FA0546C5
:1033540058B1DDE701F0D7F84DF825000135FDF748
:1033640039FF831BB3F1FF3F3FD02068436B13F059
:103374002A0F07D1436B13F4001FEBD1436B13F4F3
:10338400005FECD1436B13F0080F25D1436B13F0AE
:10339400020F24D1456B15F0200523D140F23A5396
:1033A4008363019A130203F47F0343EA0263110A5D
:1033B40001F47F410B4343EA12633B60009A13021A
:1033C40003F47F0343EA0263110A01F47F410B43D0
:1033D40043EA12637B609BE70825856398E702252F
:1033E400856395E72025856392E74FF000458FE7D5
:1033F40010B582B00446002100910191006801F0EB
:10340400ABF810F0007F13D169462046FFF770FF38
:1034140080B9019B13F4802F0ED0216D090420681C
:1034240001F01EFA30B90221206801F04AFA01E0E5
:103434004FF4006002B010BD4FF08060FAE710B5A1
:1034440082B00446002100910191006801F084F8E3
:1034540010F0007F13D169462046FFF749FF80B979
:10346400019B13F4803F0ED0216D0904206801F004
:10347400F7F930B90021206801F023FA01E04FF494
:10348400006002B010BD4FF08060FAE770B581B102
:1034940004460E46016D0904006801F084FA0546ED
:1034A40008B1284670BD0021206801F055F830604D
:1034B400F7E74FF00065F4E77047704770477047CF
:1034C4000346426E920F0A70426EC2F383624A70E0
:1034D40090F8672002F003028A7090F86620CA70A0
:1034E40090F865200A7190F864204A71826E120D7A
:1034F400CA80B0F86A2002F00F020A72826EC2F328
:10350400C0324A72826EC2F380328A72826EC2F311
:103514004032CA72826EC2F300320A7300224A73C6
:10352400426C002A40F08680806E40F6FC7202EA0B
:103534008002D86E42EA90720A61DA6EC2F3C26205
:103544000A7593F86F2002F007024A75DA6EC2F327
:1035540042528A75DA6EC2F38242CA75DA6EC2F3D7
:10356400C2320A760A6901325A65087E00F0070001
:10357400023082405A6591F808C00CF00F0C01200B
:1035840000FA0CF09865400A00FB02F2DA654FF489
:1035940000721A66DA6EC2F380324A76DA6EC2F3C9
:1035A400C6128A76DA6E02F07F02CA761A6FD20FDA
:1035B4000A771A6FC2F341724A771A6FC2F38262B2
:1035C4008A771A6FC2F38352CA771A6FC2F34052D2
:1035D40081F82020002081F82100B3F8722002F045
:1035E400010281F822201A6FC2F3C03281F823202D
:1035F4001A6FC2F3803281F824201A6FC2F340326A
:1036040081F825201A6FC2F3003281F826201A6F40
:10361400C2F3812281F827201A6FC2F3012281F8B4
:1036240028201B6FC3F3460381F82930012381F856
:103634002A307047012A11D1826E120402F47C12DE
:10364400B0F86E0002430A610A69013292025A65B7
:10365400DA654FF400729A651A669BE702680549B9
:103664009163826B42F080528263012083F83400BC
:10367400704700BFFF05400070B590B004460123B9
:10368400ADF81230006800F04EFF00286CD0636C77
:10369400032B45D1636C032B5DD1636C032B1DD0CD
:1036A400BDF8121021650904206801F04FF90546A0
:1036B40000285BD10021206800F04EFF60660421E1
:1036C400206800F049FFA0660821206800F044FF4C
:1036D400E0660C21206800F03FFF20670421206889
:1036E40000F03AFF000DE06405A92046FFF7E8FE6C
:1036F40000283ED1226D12040023206801F06EF8E8
:10370400054698BB234653F8106B93E807008DE8F1
:103714000700043494E80E00304600F0DBFE25E098
:10372400206801F0FEF8054600BB0021206800F087
:1037340013FF60670421206800F00EFFA0670821D2
:10374400206800F009FFE0670C21206800F004FF06
:10375400C4F880009EE70DF11201206801F00BF916
:103764000546002899D001E04FF08065284610B046
:1037740070BD4FF08055F9E770B58AB00446002358
:1037840004930593069307930893762309930AAB4E
:1037940013E907008DE8070004AB0ECB206800F0A6
:1037A40099FE18B1012528460AB070BD0546184E89
:1037B4000023C6F8A030206800F0ADFE0123C6F84F
:1037C400A0302046FFF7F4FC30B1012584F83450D2
:1037D400A36B0343A363E6E72046FFF74DFF30B135
:1037E400012584F83450A36B0343A363DBE74FF450
:1037F4000071206800F0C0FF0028D4D02368054978
:103804009963A36B0343A363012584F83450CAE787
:1038140000802542FF054000A8B110B5044690F889
:10382400343063B1032384F834302046FFF7A4FF17
:1038340058B9A0632063012384F8343010BD0377A2
:10384400FDF7BEF9EEE7012070470120F6E700001E
:1038540030B58BB004460D46032380F83430436CF6
:10386400032B1CD0B1F5805F08D0B1F5006F0AD0EE
:1038740079B1836B43F00063836314E0836B43F09B
:10388400805383630FE0FFF7B3FDA36B0343A3638C
:1038940009E0FFF7D4FDA36B0343A36303E0836B49
:1038A40043F080538363A36BC3B12368174A9A63BD
:1038B400012584F834504FF40071206800F05CFF57
:1038C40030B1236811499963A36B0343A3630125B2
:1038D400012384F8343028460BB030BD6368049368
:1038E400A3680593E3680693079563690893A3693E
:1038F40009930AAB13E907008DE8070004AB0ECB6C
:10390400206800F0E7FD0025D5E700BFFF05400073
:1039140010B582B004460023019301A9FFF7B6FD58
:1039240010B1A36B0343A3630198C0F3432002B017
:1039340010BD10B5846B236840F23A529A63204656
:10394400FFF7E6FF012384F83430002323630538AE
:10395400012805D9A36B53B92046FFF7B0FD10BD6C
:10396400206800F021FFA36B0343A363F2E7204622
:10397400FFF7A4FDF3E710B5846B236840F23A52D5
:103984009A632046FFF7C4FF012384F834300023F0
:1039940023630538012805D9A36B53B92046FFF7E3
:1039A4008EFD10BD206800F0FFFEA36B0343A363EC
:1039B400F2E72046FFF782FDF3E7000038B504463E
:1039C400056B03685A6B12F4004F02D015F0080F10
:1039D40028D15A6B12F4807F5AD04FF480729A63C4
:1039E4002268D36B23F4414323F03A03D363226860
:1039F400D36A23F00103D36215F0080F26D015F023
:103A0400220F12D1236840F23A529A63012384F8B8
:103A140034300023236315F0030F13D02046FFF73F
:103A24004CFD01E0FFF724FC38BD206800F0BCFE2B
:103A340003460028E6D0A26B1343A3632046FFF796
:103A44003DFDDFE72046FFF737FDEDE715F0800F7A
:103A5400EAD015F0200F0ED115F0030FE4D122683F
:103A6400D36A23F00803D362012384F83430204658
:103A7400FFF722FDD8E7206800F096FE03460028F1
:103A8400EAD0A26B1343A3632046FFF717FDE3E7D5
:103A94005A6B12F4804F02D015F0080F4AD15A6BBA
:103AA40012F03A0FC0D05A6B12F0020F03D0A26B7F
:103AB40042F00202A2635A6B12F0080F03D0A26B09
:103AC40042F00802A2635A6B12F0200F03D0A26BDB
:103AD40042F02002A2635A6B12F0100F03D0A26BC3
:103AE40042F01002A26340F23A529A632268D36B06
:103AF40023F49D73D363206800F056FEA36B034345
:103B0400A36315F0080F19D115F0800F8CD015F0B0
:103B1400300F1CD115F0030F26D0236C174A1A65F9
:103B2400206CFDF73FFD00283FF47EAF206CFFF7CB
:103B340022FF79E72046FFF7B7FB75E7012384F8F6
:103B44003430002323632046FFF7B8FC6CE7E36BB3
:103B54000B4A1A65E06BFDF725FD00283FF464AFBE
:103B6400E06BFFF7E6FE5FE70023A363012284F81E
:103B7400342023632046FFF7A2FC55E77B39000875
:103B84003739000800285AD010B50446436A33B9BF
:103B94004368B3F5827F05D00023C36102E00023AC
:103BA400036143610023A36294F85130002B40D099
:103BB400022384F851302268136823F04003136011
:103BC400636803F48273A26802F404421343E26854
:103BD40002F400621343226902F002021343626991
:103BE40002F001021343A26902F400721343E26972
:103BF40002F038021343226A02F080021343A26ADD
:103C040002F40052216813430B60638B03F0040336
:103C1400626A02F01002216813434B602268D36980
:103C240023F40063D36100206065012384F85130DC
:103C340010BD84F850302046FDF784F8B8E7012021
:103C44007047704710B584B00446026851689368A1
:103C540003F04100012867D013F0020F02D011F0E5
:103C6400800F68D113F4B07F68D011F0200F65D0B5
:103C740013F0400F0FD094F85100C0B203285FD066
:103C8400606D40F00400606500200090D0680090F2
:103C940090680090009813F0200F0CD0606D40F0F5
:103CA400010060650020029090680290106820F086
:103CB40040001060029A13F4807F09D0636D43F0D2
:103CC400080363650023039323689B680393039BA2
:103CD400636D002B32D02268536823F0E0035360F5
:103CE400012384F8513011F0030F31D02268536856
:103CF40023F003035360E36C4BB1174A1A65E06C7D
:103D0400FDF750FC18B1636D43F040036365A36C89
:103D1400A3B1114A1A65A06CFDF744FC70B1636D40
:103D240043F04003636509E011F0400F94D0236C25
:103D34002046984702E0636C2046984704B010BDC3
:103D440000230193D368019393680193019BF5E7E2
:103D54002046FFF776FFF1E7613D000808B5806B68
:103D64000023C387C386FFF76CFF08BD026802F116
:103D74000C0353E8003F23F490730C3242E8003103
:103D84000029F3D1026802F1140353E8003F23F041
:103D94000103143242E800310029F3D1036B012BF3
:103DA40005D0202380F83E30002303637047026867
:103DB40002F10C0353E8003F23F010030C3242E8F5
:103DC40000310029F3D1ECE790F83D30DBB2212B30
:103DD40001D0022070478368B3F5805F17D0036A6F
:103DE4005A1C02621A7803685A60C38C9BB2013B66
:103DF4009BB2C3844BB90268D36823F08003D360B9
:103E04000268D36843F04003D3600020704703691D
:103E1400002BE4D1036A1B880268C3F308035360D0
:103E2400036A02330362E0E710B5044602681369CB
:103E340023F44053C1680B431361836802691A4336
:103E440043691A43C3691A430168CB6823F41643D0
:103E540023F00C031343CB600268536923F44073CB
:103E640081690B4353610368314A934206D002F5DA
:103E74008062934202D0FEF707FB01E0FEF714FBD9
:103E8400E369B3F5004F29D00021031849411B18F9
:103E940041F10001C90041EA5371DB00181863685D
:103EA4004FEA83024FEA937341F10001FCF788F96A
:103EB400204AA2FB00314909642303FB11031B01BF
:103EC4003233A2FB03235B0903F0F00202EB01127D
:103ED40003F00F03216813448B6010BD0023021804
:103EE40043EB0301121841F10001C90041EA527188
:103EF400D200101841F10001626892185B41FCF78E
:103F04005FF90C4AA2FB00314909642303FB110346
:103F1400DB003233A2FB03235B095A0002F4F8727C
:103F240002EB011203F00703216813448B60D4E70A
:103F3400001001401F85EB5158B310B5044690F8AA
:103F44003D300BB3242384F83D302268D36823F436
:103F54000053D3602046FFF767FF2268136923F4F8
:103F6400904313612268536923F02A035361226842
:103F7400D36843F40053D36000202064202384F8E2
:103F84003D3084F83E3010BD80F83C30FCF7F6FF3D
:103F9400D8E701207047002830D010B5044690F8C7
:103FA4003D3033B3242384F83D302268D36823F4AE
:103FB4000053D3602046FFF737FF2268136923F4C8
:103FC400904313612268536923F0220353612268EA
:103FD400536943F0080353612268D36843F40053E0
:103FE400D36000202064202384F83D3084F83E30E0
:103FF40010BD80F83C30FCF7C1FFD3E701207047C7
:10400400704708B50168CA6822F04002CA602022DD
:1040140080F83D20FFF7F4FF002008BD704770478B
:1040240008B5806B0023C385C384FFF7F8FF08BD80
:10403400704790F83E30DBB2222B67D18368B3F52A
:10404400805F4DD0826AB3F5805F04D0002B54D1D9
:104054000369002B51D103685B681370836A0133D1
:104064008362C38D9BB2013B9BB2C385002B4FD1AE
:1040740000B583B00268D36823F02003D3600268DC
:10408400D36823F48073D3600268536923F0010377
:104094005361202380F83E30036B012B33D100237E
:1040A4000363026802F10C0353E8003F23F010039A
:1040B4000C3242E800310029F3D103681A6812F087
:1040C400100F06D0002201921A6801925B680193D6
:1040D400019B818DFFF7ACFF002003B05DF804FB6A
:1040E4000269002AAED1826A03685B68C3F30803DD
:1040F4001380836A02338362B3E703685B6803F067
:104104007F031370AAE7FFF789FFE5E702207047F2
:104114000020704710B582B0044602681368D06866
:10412400516913F00F0F09D113F0200F0CD010F0C8
:10413400200F09D02046FFF77CFF16E011F00101A3
:1041440015D110F4907F12D1216B012979D013F08D
:10415400800F03D010F0800F40F0108113F0400F57
:1041640003D010F0400F40F00D8102B010BD13F0E9
:10417400010F06D010F4807F03D0226C42F00102BC
:10418400226413F0040F04D019B1226C42F002022D
:10419400226413F0020F04D019B1226C42F004021D
:1041A400226413F0080F07D010F0200F00D119B1CA
:1041B400226C42F008022264226C002AD5D013F04B
:1041C400200F02D010F0200F29D123685B6903F07F
:1041D4004003226C12F0080F00D163B32046FFF7AE
:1041E400C5FD23685B6913F0400F20D0226802F1FB
:1041F400140353E8003F23F04003143242E8003133
:104204000029F3D1A36B73B1604A1A65A06BFDF763
:10421400C9F90028A9D0A06B036D9847A5E72046EB
:10422400FFF707FFD1E72046FFF7F9FE9DE7204699
:10423400FFF7F5FE99E72046FFF7F1FE002323641C
:1042440093E713F0100F82D010F0100F3FF47FAFFC
:10425400002301931368019353680193019B5369ED
:1042640013F0400F50D0A26B13685B689BB2002B15
:104274003FF47BAFA18D99427FF677AFE385D36995
:10428400B3F5807F37D0226802F10C0353E8003F76
:1042940023F480730C3242E800310029F3D1226800
:1042A40002F1140353E8003F23F00103143242E8FF
:1042B40000310029F3D1226802F1140353E8003FCE
:1042C40023F04003143242E800310029F3D12023C3
:1042D40084F83E3000232363226802F10C0353E880
:1042E400003F23F010030C3242E800310029F3D1DF
:1042F400A06BFDF70DF9A18DE38D9BB2C91A89B2AC
:104304002046FFF795FE30E7A18DE38D9BB2C91AD5
:1043140089B2E38D9BB2002B3FF427AF00293FF411
:1043240024AF226802F10C0353E8003F23F4907396
:104334000C3242E800300028F3D1226802F1140361
:1043440053E8003F23F00103143242E80030002810
:10435400F3D1202384F83E3000232363226802F142
:104364000C0353E8003F23F010030C3242E8003002
:104374000028F3D12046FFF75BFEF6E62046FFF760
:1043840023FDF2E62046FFF73CFEEEE6254000085A
:104394000B4B1B680B4AA2FB03235B0A41F28832D6
:1043A40002FB03F31A46013B3AB1426B12F0800F51
:1043B400F8D0C5238363002070474FF00040704756
:1043C40000000020D34D62100146144B1B68144AB0
:1043D400A2FB03235B0A41F2883202FB03F31A4671
:1043E400013BBAB14A6B12F0450FF8D012F4006FDA
:1043F400F5D14B6B13F0040F06D1486B10F001009C
:1044040005D1C5238B63704704208863704701205E
:10441400886370474FF00040704700BF00000020E1
:10442400D34D62100146104B1B68104AA2FB0323B4
:104434005B0A41F2883202FB03F31A46013B82B164
:104444004A6B12F0450FF8D012F4006FF5D1486BA7
:1044540010F0040002D1C5238B63704704208863E5
:1044640070474FF00040704700000020D34D6210A9
:104474000146164B1B68164AA2FB03235B0A41F252
:10448400883202FB03F31A46013BE2B14A6B12F095
:10449400450FF8D012F4006FF5D14B6B13F0040FF5
:1044A4000BD14B6B13F001030AD1486B10F04000A1
:1044B4000BD040228A6318467047042088637047F3
:1044C4000120886370474FF00040704700000020CF
:1044D400D34D621084B00DF1040C8CE80E000B4631
:1044E4001343039A1343049A1343059A1343069AF6
:1044F4001343426822F4FD4222F07F0213434360D7
:10450400002004B07047D0F8800070470B68C0F8F2
:1045140080300020704708B5032303600220FCF7B5
:104524005FFE002008BD006800F0030070470B68C0
:1045340083604B688A681343CA6813430A69134348
:10454400C26822F47F6222F00F021343C36000208A
:1045540070470069C0B2704714304058704700007B
:1045640038B504460D46504B1B685049A1FB031354
:104574005B0A03FB02F21346013A002B5DD0636B26
:1045840013F0450FF7D013F4006FF4D1636B13F0FD
:10459400040F06D1636B13F0010F05D00120A06353
:1045A4004DE00420A0634AE0C523A3632046FFF73F
:1045B400D0FFA84201D0012041E000212046FFF7AE
:1045C400CBFF03463A481840C8B3002B38DB13F03E
:1045D400804F38D113F0005F37D113F0805F36D1AC
:1045E40013F0006F36D113F0806F36D113F0807F53
:1045F40036D113F4000F36D113F4800F36D113F4EF
:10460400001F36D113F4801F36D113F4802F36D116
:1046140013F4003F36D113F4803F36D113F4004F26
:1046240036D113F4804F36D113F4005F36D113F032
:10463400080F36D04FF4000001E04FF0004038BDC1
:104644004FF00070FBE74020F9E78020F7E74FF4D4
:104654008070F4E74FF40070F1E74FF48060EEE708
:104664004FF40060EBE74FF48050E8E74FF400505C
:10467400E5E74FF48040E2E74FF40040DFE74FF412
:104684000030DCE74FF48020D9E74FF40020D6E770
:104694004FF48010D3E74FF40010D0E74FF48000BC
:1046A400CDE74FF48030CAE700000020D34D6210FC
:1046B40008E0FFFDF8B505460E461746234B1B6878
:1046C400234AA2FB03235B0A41F2883202FB03F371
:1046D4001A46013B8AB36C6B14F0450FF8D014F4FE
:1046E400006FF5D16B6B13F0040F06D16B6B13F0F5
:1046F400010F05D00120A86321E00420A8631EE077
:104704002846FFF726FFB04201D0012017E0C52359
:10471400AB6300212846FFF71FFF034610F46040F7
:1047240008D013F4804F0BD113F4004F0BD04FF487
:10473400805004E01B0C3B8001E04FF00040F8BDCA
:104744004FF40050FBE74FF48030F8E700000020FE
:10475400D34D62100B6843624B6883628B68CA68EE
:1047640013430A6913434A691343C26A22F0F702E6
:104774001343C3620020704730B587B004460191EB
:104784001025029540230393002304934FF4806380
:10479400059301A9FFF7CBFE41F288322946204652
:1047A400FFF7DEFE07B030BD30B587B00446002306
:1047B40001930C2502954022039204934FF48063E5
:1047C400059301A9FFF7B3FE034A29462046FFF7E4
:1047D400C7FE07B030BD00BF00E1F50530B587B0B6
:1047E4000446019207250295402303930023049372
:1047F4004FF48063059301A9FFF799FE41F28832D3
:1048040029462046FFF7ACFE07B030BD10B586B090
:104814000446002301930293039304934FF48063AB
:10482400059301A9FFF783FE2046FFF7B1FD06B00B
:1048340010BD10B586B004464FF4D5730193082318
:10484400029340230393002304934FF4806305935E
:1048540001A9FFF76CFE2046FFF70AFE06B010BD63
:1048640030B587B004460191372502954023039360
:10487400002304934FF48063059301A9FFF757FEC7
:1048840041F2883229462046FFF76AFE07B030BD60
:1048940010B586B0044641F0004141F48011019105
:1048A4002923029340230393002304934FF480634A
:1048B400059301A9FFF73BFE2046FFF7B3FD06B0C1
:1048C40010BD30B587B004460191062502954023FA
:1048D4000393002304934FF48063059301A9FFF726
:1048E40026FE41F2883229462046FFF739FE07B0FA
:1048F40030BD30B587B004460023019333250295BB
:104904004022039204934FF48063059301A9FFF7B7
:104914000EFE41F2883229462046FFF721FE07B0F9
:1049240030BD10B586B004460023019302220292E2
:10493400C022039204934FF48063059301A9FFF707
:10494400F6FD2046FFF740FD06B010BD10B586B059
:104954000446019109230293C02303930023049383
:104964004FF48063059301A9FFF7E1FD2046FFF7AB
:104974002BFD06B010BD70B586B004460D4600236D
:104984000193032602964022039204934FF480631A
:10499400059301A9FFF7CBFD2A4631462046FFF7D0
:1049A40089FE06B070BD30B587B0044601910D256F
:1049B400029540230393002304934FF480630593EB
:1049C40001A9FFF7B4FD41F2883229462046FFF7DA
:1049D400C7FD07B030BD000082B000230193019BE6
:1049E400013301930E4A934214D80369002BF6DA7B
:1049F40000230193036943F001030361019B013325
:104A04000193074A934208D8036913F0010FF5D1C3
:104A1400002000E0032002B070470320FBE700BF42
:104A2400400D030084B010B5044603A880E80E00CE
:104A3400089B012B1FD1A36B23F48033A363E3688A
:104A440023F4840323F04003E360E36823F4401376
:104A5400E3600F9B012B09D02046FFF7BDFF069BA7
:104A6400012B1BD0BDE8104004B07047E36843F449
:104A74008013E360F0E7E36843F04003E36020461B
:104A8400FFF7AAFF0C9B23B9A36B43F48033A36302
:104A9400E5E7A36B23F48033A363E0E7A36843F063
:104AA4000603A360A36843F02003A360DAE78368E6
:104AB40023F00103836000207047000082B00023CC
:104AC4000193890141F020010161019B01330193AC
:104AD400054A934205D8036913F0200FF5D100204D
:104AE40000E0032002B07047400D030082B00023B1
:104AF400019310230361019B01330193054A9342FF
:104B040005D8036913F0100FF5D1002000E003204D
:104B140002B07047400D0300406900F00100704787
:104B240038B50546C36823F0C043C360012913D0D8
:104B340019BBC36843F08043C36000240120FCF721
:104B44004FFB01342846FFF7E7FF08B1312CF5D9B4
:104B5400322C14D0002038BDC36843F00053C36026
:104B640000240120FCF73CFB01342846FFF7D4FF66
:104B74000128EDD0312CF4D9EAE70120EBE701203C
:104B8400E9E7000084B010B5044603A880E80E00ED
:104B94000023C4F8003EA36B23F40013A363E36B68
:104BA40013F4807F10D0059B012B06D0D4F8003479
:104BB40023F00403C4F800340CE0D4F8003443F0C8
:104BC4000403C4F8003405E0D4F8003423F00403EB
:104BD400C4F8003410212046FFF770FF2046FFF789
:104BE40085FF002209E004EB42134FF0FF31C3F8C4
:104BF40008150021C3F80C150132049B9342F2D826
:104C04000023A3614FF0FF336361E36B13F4807FF0
:104C140017D04FF40073636203F18073A3620D4BEA
:104C2400C4F80031069B1BB9A36943F01003A361C8
:104C3400A269094B1343A3610020BDE8104004B0EE
:104C440070478023636203F5C003A362034BC4F877
:104C54000031E7E70003E000080020A3E000400083
:104C6400DFF834D00D480E490E4A002302E0D45830
:104C7400C4500433C4188C42F9D30B4A0B4C0023A0
:104C840001E013600432A242FBD3FCF741F900F0C7
:104C94007DF9FBF7A9FE7047000002200000002008
:104CA4003C0400206C5100083C040020A00C0020AF
:104CB400FEE72DE9F04786468C460846089E1546D1
:104CC40074461946002B40F0C2808542B2FA82F243
:104CD40045D94AB1C2F1200300FA02FC2EFA03F3CB
:104CE400954043EA0C0C94404FEA154EA8B2BCFB25
:104CF400FEF8230C0EFB18CC08FB00F943EA0C4326
:104D0400994528D9EB1808F1FF3704D2994502D9FF
:104D1400A8F102072B44A3EB0903A4B2B3FBFEFCE6
:104D24000EFB1C330CFB00F044EA0344A04214D9EC
:104D34002C190CF1FF3304D2A04202D9ACF10203C6
:104D44002C44241A43EA07401EB1D44000233460A3
:104D54007360BDE8F0874746DDE76346F1E792BB41
:104D6400431B01214FEA154EAFB2B3FBFEFC200CEE
:104D74000EFB1C330CFB07F840EA0343984562D949
:104D8400EB180CF1FF3004D2984502D9ACF10200C3
:104D94002B44A3EB0803A4B2B3FBFEFC0EFB1C33B1
:104DA4000CFB07F744EA0344A7424ED92C190CF133
:104DB400FF3304D2A74202D9ACF102032C44E41B12
:104DC40043EA0040C0E7C2F1200320FA03F1954012
:104DD40090402EFA03F303434FEA154EAFB2B1FBF2
:104DE400FEFC0EFB1C10190C0CFB07F841EA0041F9
:104DF400884504FA02F422D969180CF1FF3004D270
:104E0400884502D9ACF102002944A1EB08019BB208
:104E1400B1FBFEFC0EFB1C110CFB07F743EA01433C
:104E24009F420ED9EB180CF1FF3104D29F4202D9F4
:104E3400ACF102012B44DB1B41EA004192E76046DE
:104E4400E3E76146F7E76046A3E76346B7E78342D3
:104E540006D916B9002108467BE7C6E900E0F9E760
:104E6400B3FA83F78FB9834201D3724508D8BEEBF6
:104E7400020460EB030301209C461EB9002168E78D
:104E84003846FAE7C6E9004CF8E7C7F1200CBB4006
:104E940022FA0CF41C432EFA0CF120FA0CF3B8405D
:104EA40001434FEA14490EFA07F5B3FBF9F81FFA68
:104EB40084FE09FB18300B0C08FB0EFA43EA00438E
:104EC4009A4502FA07F240D9E31808F1FF3004D2F8
:104ED4009A4502D9A8F102002344A3EB0A0389B23C
:104EE400B3FBF9F809FB183308FB0EFE41EA034152
:104EF4008E452CD9611808F1FF3304D28E4502D9AE
:104F0400A8F10203214443EA0040A0FB0298A1EB6C
:104F14000E014145CE46434602D306D14D4504D247
:104F2400B9EB020E68EB04030138002EA6D0B5EBF2
:104F34000E0261EB030101FA0CFC22FA07F34CEABE
:104F44000303F940C6E9003198E74046C5E7434604
:104F5400D9E70000002301461A46184600F08CB831
:104F640038B5084D084BED1AAC1007D0043D1D446C
:104F7400013C55F804399847002CF9D1BDE8384074
:104F840000F0D0B86C5100086851000870B50D4E9F
:104F94000D4D761BB61006D0002455F8043B0134A1
:104FA4009847A642F9D1094E094D761B00F0B4F892
:104FB400B61006D0002455F8043B01349847A642A5
:104FC400F9D170BD605100086051000868510008B3
:104FD40060510008830730B548D0541E002A3FD0E2
:104FE400CAB2034601E0013C3AD303F8012B9D0702
:104FF400F9D1032C2DD9CDB245EA05250F2C45EA6C
:10500400054536D9A4F1100222F00F0C03F1200E4D
:10501400E6444FEA121C03F1100242E9045542E946
:10502400025510327245F8D10CF1010214F00C0F44
:1050340003EB021204F00F0C13D0ACF1040323F0C1
:1050440003030433134442F8045B9342FBD10CF092
:1050540003042CB1C9B21C4403F8011B9C42FBD1CC
:1050640030BD64461346002CF4D1F9E703461446D8
:10507400BFE71A46A446E0E72DE9F8431D4D06466E
:10508400286898460F46914600F042F81A4B1B6870
:10509400D3F848411CB3286865681F2D24DC4EB939
:1050A4006B1C0235636044F8257000F033F800206F
:1050B400BDE8F88304EB85010123C1F88890D4F896
:1050C4008821AB401A43022EC4F88821C1F8088114
:1050D400E6D1D4F88C211A43C4F88C21E0E703F517
:1050E400A674C3F84841D6E700F014F84FF0FF3037
:1050F400DEE700BF3804002054510008024B13B10E
:105104000248FFF727BF704700000000654F000802
:10511400704700BF704700BFF8B500BFF8BC08BCBB
:105124009E467047F8B500BFF8BC08BC9E46704761
:105134000000000001020304000000000000000061
:1051440001020304060708090006101600061016DB
:045154001000002027
:085158005EFBFF7F0100000077
:08516000015100081D020008C6
:04516800F901000841
:10516C000024F4000100000010000000000000000A
:10517C0000000000FC02002064030020CC0300208F
:10518C000000000000000000000000000000000013
:10519C000000000000000000000000000000000003
:1051AC0000000000000000000000000000000000F3
:1051BC0000000000000000000000000000000000E3
:1051CC0000000000000000000000000000000000D3
:1051DC0000000000000000000000000000000000C3
:1051EC0000000000000000000000000000000000B3
:1051FC0000000000000000000000000000000000A3
:10520C000000000000000000000000000000000092
:10521C000000000000000000010000000000000081
:10522C000E33CDAB34126DE6ECDE05000B00000046
:10523C000000000000000000000000000000000062
:10524C000000000000000000000000000000000052
:10525C000000000000000000000000000000000042
:10526C000000000000000000000000000000000032
:0C559C0000000000000000009C0C00203B
:0400000508004C653E
:00000001FF
